:020000040800F2
:10000000C00C0020D5010008F51F0008A31D000842
:10001000CD1E00082D0600084D2B00080000000032
:10002000000000000000000000000000B1230008F4
:10003000310600080000000025230008B323000853
:10004000EF010008EF010008EF010008EF010008D0
:10005000EF010008EF010008EF010008EF010008C0
:10006000EF010008EF010008EF010008EF010008B0
:10007000EF010008EF010008EF010008EF010008A0
:10008000EF010008EF010008EF010008EF01000890
:10009000EF010008EF010008EF0100083306000837
:1000A000EF010008EF010008EF010008EF01000870
:1000B000F12400080125000825250008EF010008AB
:1000C000EF010008EF010008EF010008EF01000850
:1000D000EF010008EF010008B92A0008C92A00084A
:1000E000EF010008EF010008EF010008EF01000830
:1000F000EF010008EF010008EF010008EF01000820
:10010000EF010008EF010008EF010008EF0100080F
:10011000EF010008EF010008EF010008EF010008FF
:10012000EF010008EF010008EF010008EF010008EF
:1001300000F002F800F03FF80AA090E8000C8244BA
:100140008344AAF10107DA4501D100F034F8AFF297
:10015000090EBAE80F0013F0010F18BFFB1A43F0A5
:100160000103184784430000A4430000103A24BF51
:1001700078C878C1FAD8520724BF30C830C144BF0C
:1001800004680C607047000000230024002500264E
:10019000103A28BF78C1FBD8520728BF30C148BFEA
:1001A0000B607047642900F07F80002070471FB506
:1001B0001FBD10B510BD00F00BFA1146FFF7F7FF99
:1001C00002F0B2FD00F029FA03B4FFF7F2FF03BC1E
:1001D00002F0E1FC0948804709480047FEE7FEE7D6
:1001E000FEE7FEE7FEE7FEE7FEE7FEE7FEE7FEE7E7
:1001F00004480549054A064B7047000021240008C1
:1002000031010008C0060020C00C0020C0080020FA
:10021000C0080020704700000FB4044910B503AABD
:10022000029800F0BBF910BC5DF814FB2C00002014
:100230000FB41CB5074B06AA7B446946009005988D
:1002400000F093F90020694600F0A2F91CBC5DF8AB
:1002500014FB00005503000070B504468569006872
:10026000C10601D5302600E02026C00707D070BDAA
:10027000D4E9012130469047206A401C20626D1E5F
:10028000F6D570BD70B5044685690078C00707D102
:1002900070BDD4E9012120209047206A401C2062D3
:1002A0006D1EF6D570BD00002DE9F0410646002414
:1002B00010687529314616A510D0AFF300800028CC
:1002C00002DA404213A507E031688A0701D512A57A
:1002D00002E0490704D511A5012401E0AFF3008035
:1002E00000210A2206F1240709E0B0FBF2FCB0FB72
:1002F000F2F302FB1C00303078541846491C0028E9
:10030000F3D123462A463046BDE8F04100F0CFB88D
:10031000000000002D0000002B0000002000000065
:100320002DE9F05F894604464FF0000ADFF824B15A
:10033000FB44C0F820A02046E168884700287DD013
:10034000252806D0D4E901219047206A401C20626C
:10035000F1E700255F462046E168884720280646E9
:1003600007DB312E05D2B81910F8200C08B105436F
:10037000F1E7A80701D525F00405C4F81CA0002763
:10038000C4F818A02A2E09D0304602F0FDFB38B37D
:1003900004EB8708303EC8F8186019E059F8041BD0
:1003A000204604EB87029161E1688847012F0646E9
:1003B00018D1E069002820DA25F020051DE0D8F8E2
:1003C000180000EB800006EB40003038C8F8180039
:1003D0002046E1688847064602F0D6FB0028EED1A9
:1003E000012F0AD02E2E08D12046E16888477F1CB5
:1003F0000646022F45F02005C4DBA069002803DA79
:10040000404245F00105A061E80701D025F0100544
:10041000A6B1A6F14100192802D8203645F400659E
:100420004A463146204625604D46FFF7BBFE60B187
:10043000012807D0ED1D25F0070000E007E000F1DE
:10044000080978E705F1040975E730467AE7206A7C
:10045000BDE8F09FA34100004FF0000200B5134635
:1004600094469646203922BFA0E80C50A0E80C50D4
:10047000B1F12001BFF4F7AF090728BFA0E80C5085
:1004800048BF0CC05DF804EB890028BF40F8042B7E
:1004900008BF704748BF20F8022B11F0804F18BFEB
:1004A00000F8012B704770477047704770472DE97F
:1004B000F0470D4699469246044600F1240801682B
:1004C000880604D5E06921F01001216000E00120D8
:1004D000A84201DD471B00E00027A1697A1902EB61
:1004E0000900081AA0612078C00602D42046FFF750
:1004F000B3FE002608E0D4E901211AF8060090476F
:10050000206A401C761C20624E45F4DB2078C00631
:100510000AD52046FFF7A0FE06E0D4E901213020ED
:100520009047206A401C2062381EA7F10107F4DCC6
:1005300007E0D4E9012118F805009047206A401C23
:100540002062281EA5F10105F3DC2046FFF79AFE84
:100550002078000602D50220BDE8F0870120FBE7E5
:1005600001694A1C02610878704700B58FB0CDE977
:1005700001310021059105497944CDE90310114667
:100580006846FFF7CDFE0FB000BD0000E5FFFFFF9E
:100590000A6802F8010B0A6070470000074B70B54B
:1005A0000D467B44FFF7E1FF0446284600F008F8BB
:1005B00010B14FF0FF3070BD204670BD6B260000BB
:1005C000007B00F080007047004870475C06002008
:1005D0007546FFF7F9FFAE4605006946534620F021
:1005E0000700854618B020B5FFF702FEBDE82040A1
:1005F0004FF000064FF000074FF000084FF0000BDF
:1006000021F00701AC46ACE8C009ACE8C009ACE891
:10061000C009ACE8C0098D46704710B50446AFF379
:1006200000802046BDE81040FFF7CEBD00BFFEE7CA
:10063000704710B5202000F053F910BD2DE9F041AE
:10064000002401225102324800F000FB0A2002F08F
:10065000BBFA00224FF400712D4800F0F7FA2D4844
:1006600000682D49086009E02A4800682A4909689D
:10067000401A40F69801884200D906E04FF4807194
:10068000234800F0DBFA0028EED000BF21480068C4
:100690002149086009E01F4800681F490968401A9D
:1006A00041F29411884200D906E04FF48071184855
:1006B00000F0C4FA0128EED000BF164800681649C1
:1006C0000968884216D91348006813490968401A16
:1006D000124908600846006802F0D0FE074610493B
:1006E00002F0E0FE06460F4902F0E6FD054602F084
:1006F000A5FE0446204602F00BFD054600220A4BEB
:1007000002F0A4FD02D22046BDE8F0810120FBE703
:10071000000C0140240000203C000020400000208C
:10072000000088410000C8420000044070B5044643
:10073000002594F82100022803D00420A06301259D
:10074000C1E02068006820F00E0021680860206881
:10075000006820F00100216808605C492068884238
:1007600052D95A4978392068884201D1012047E09E
:10077000564964392068884201D1102040E053492D
:1007800050392068884201D1801539E04F493C3901
:100790002068884201D1801432E04C492839206811
:1007A000884202D14FF480302AE048491439206849
:1007B000884202D14FF4801022E0444920688842E8
:1007C00001D140041CE042492068884201D1012047
:1007D00016E03F4914312068884201D110200FE013
:1007E0003B4928312068884201D1801508E038490A
:1007F0003C312068884201D1801401E04FF4803000
:100800003349091F086051E030497839206888422F
:1008100001D1012047E02D4964392068884201D187
:10082000102040E0294950392068884201D18015C4
:1008300039E026493C392068884201D1801432E0F1
:10084000224928392068884202D14FF480302AE0BA
:100850001E4914392068884202D14FF4801022E0EA
:100860001A492068884201D140041CE018492068D8
:10087000884201D1012016E01549143120688842D0
:1008800001D110200FE0124928312068884201D19F
:10089000801508E00E493C312068884201D180145F
:1008A00001E04FF48030094980394860012084F824
:1008B000210000BF002084F8200000BF606B10B151
:1008C0002046616B8847284670BD000080000240CA
:1008D0000804024010B50446022001F07DFA10BD64
:1008E00010B5044604480068204020B10248046066
:1008F0002046FFF7EFFF10BD140401402DE9F84733
:10090000024600239C467BE14FF0010808FA03F4FD
:10091000D1F8008008EA0400A0427DD1DFF8F4A2FB
:10092000D1F80480A8EB0A09D0453AD014DCB8F11C
:10093000030F50D009DCB8F1000F31D0B8F1010F2E
:100940001CD0B8F1020F49D120E0B8F1110F18D036
:10095000B8F1120F42D11EE0B9F5881F25D006DC90
:10096000B9F5803F20D0B9F5801F37D11AE0B9F52D
:10097000001F18D0B9F5041F30D117E0D1F80CC012
:100980002DE0D1F80C8008F1040C28E0D1F80C809F
:1009900008F1080C23E0D1F80C8008F10C0C1EE0E3
:1009A00000BF00BF00BF00BF00BF00BFD1F808807C
:1009B000B8F1000F02D14FF0040C0BE0D1F8088021
:1009C000B8F1010F03D14FF0080C146102E04FF0B1
:1009D000080C546103E04FF0000C00E000BF00BFC2
:1009E000FF2801D8904601E002F104084646FF289E
:1009F00002D84FEA830803E0A3F108084FEA880809
:100A00004746D6F800804FF00F0909FA07F928EA9F
:100A100009080CFA07F900E07AE048EA0908C6F884
:100A20000080D1F8048008F08058B8F1805F6FD161
:100A300000BFDFF8E481D8F8188048F00108DFF83B
:100A4000D891C9F81880C846D8F8188008F001086D
:100A5000CDF8008000BF00BF4FEAB9384FEA9309D4
:100A600058F829504FEA83784FEA18794FF00F0869
:100A700008FA09F825EA0805DFF8A081424502D105
:100A80004FF0000824E0DFF89881424502D14FF092
:100A900001081DE0DFF88C81424502D14FF00208C9
:100AA00016E0DFF88481424502D14FF003080FE0E1
:100AB000DFF87881424502D14FF0040808E0DFF802
:100AC0007081424502D14FF0050801E04FF0060861
:100AD0004FEA83794FEA197908FA09F848EA0505D7
:100AE000DFF850814FEA930948F82950D1F8048083
:100AF00008F48038B8F5803F0BD1DFF83C81D8F896
:100B0000008048EA0008DFF83091C9F800800AE068
:100B100075E0DFF82481D8F8008028EA0008DFF8C3
:100B20001891C9F80080D1F8048008F40038B8F5AD
:100B3000003F0ED1DFF8008108F10408D8F80080EA
:100B400048EA0008DFF8F09009F10409C9F80080CC
:100B50000DE0DFF8E48008F10408D8F8008028EA06
:100B60000008DFF8D49009F10409C9F80080D1F831
:100B7000048008F48018B8F5801F0ED1DFF8B88023
:100B800008F10808D8F8008048EA0008DFF8A890C3
:100B900009F10809C9F800800DE0DFF89C8008F130
:100BA0000808D8F8008028EA0008DFF88C9009F1DE
:100BB0000809C9F80080D1F8048008F40018B8F5D5
:100BC000001F0ED1DFF8708008F10C08D8F8008003
:100BD00048EA0008DFF8609009F10C09C9F80080C4
:100BE0000DE0DFF8548008F10C08D8F8008028EAFE
:100BF0000008DFF8449009F10C09C9F800805B1C7B
:100C0000D1F8008028FA03F8B8F1000F7FF47CAE29
:100C1000BDE8F887000011100010024000080140F4
:100C2000000C014000100140001401400018014078
:100C3000001C014008000140000401400246936886
:100C40000B400BB1012000E0002070470AB10161A8
:100C500001E00B0403617047014800687047000021
:100C60004800002003480068034909780844014906
:100C700008607047480000205000002010B5084868
:100C8000006840F0100006490860052000F080F878
:100C90000F2000F007F800F02BF8002010BD000036
:100CA0000020024070B504460E4800784FF47A7177
:100CB000B1FBF0F00C490968B1FBF0F5284600F0F3
:100CC000F7FB08B1012070BD102C07D2002221468D
:100CD000501E00F01EF80548046001E00120F2E714
:100CE0000020F0E750000020440000204C000020CD
:100CF000704701460846002809DB00F01F03012267
:100D00009A4043099B0003F1E023C3F8002100BF90
:100D100070472DE9F05F80460D461646002701F02A
:100D200017FF074639462A46334601F00700C0F14F
:100D3000070ABAF1040F02D94FF0040A01E0C0F12A
:100D4000070AD14600F1040ABAF1070F02D24FF0A8
:100D5000000A01E0A0F1030AD4464FF0010A0AFAA2
:100D600009FAAAF1010A0AEA020A0AFA0CFA4FF091
:100D7000010B0BFA0CFBABF1010B0BEA030B4AEA7C
:100D80000B042146404601F0EBFEBDE8F09F000059
:100D900000BF00F00702064B19684FF6FF03194029
:100DA000044B0B4343EA0221014B196000BF70471B
:100DB0000CED00E00000FA0570B504460D460CB9D4
:100DC000012070BD5A48006800F00700A8420ED20A
:100DD0005748006820F00700284355490860084636
:100DE000006800F00700A84201D00120E9E7207860
:100DF00000F0020002281DD1207800F00400042831
:100E000005D14C48406840F4E0604A494860207889
:100E100000F00800082805D14648406840F46050BA
:100E2000444948604348406820F0F000A168084306
:100E300040494860207800F0010078B360680128DC
:100E400006D13C48006800F4003090B90120B8E7B2
:100E50006068022806D13748006800F0007040B989
:100E60000120AEE73348006800F0020008B9012015
:100E7000A7E73048406820F00300616808432D4927
:100E80004860FFF7E9FE064609E0FFF7E5FE801B34
:100E900041F28831884202D9032092E707E02548D1
:100EA000406800F00C006168B0EB810FEDD1204884
:100EB000006800F00700A8420ED91D48006820F025
:100EC000070028431A4908600846006800F0070038
:100ED000A84201D0012074E7207800F00400042823
:100EE00007D11448406820F4E060E16808431149E4
:100EF0004860207800F00800082808D10D484068B4
:100F000020F46050216940EAC1000A49486000F0BD
:100F10003FF808494968C1F30311074A515CC840CA
:100F20000649086006480068FFF7BCFE002048E755
:100F30000020024000100240BF440008440000208E
:100F40004C00002001480068704700004400002069
:100F500000B5FFF7F7FF04494968C1F30221034ACE
:100F6000515CC84000BD000000100240CF440008A2
:100F700000B5FFF7E7FF04494968C1F3C221034AFE
:100F8000515CC84000BD000000100240CF44000882
:100F9000F0B585B00FF26C0C9CE8E01001A8A0E859
:100FA000E0101CA52D6800950021002200230024DC
:100FB0000020194D696801F00C05F5B1042D02D02F
:100FC000082D19D101E0154819E001ADC1F38346A0
:100FD000AC5D01F4803555B10F4D6D68C5F34045EA
:100FE0001DF805200D4D6543B5FBF2F302E00C4DF5
:100FF00004FB05F3184602E000BF084800BF00BF2D
:1010000005B0F0BD02030405060708090A0B0C0D24
:101010000E0F1010010200000010024000127A00B2
:1010200000093D00F8B504460CB90120F8BD207850
:1010300000F00100002878D0F848406800F00C006B
:1010400004280CD0F548406800F00C00082811D1A5
:10105000F248406800F48030B0F5803F0AD1EF4894
:10106000006800F4003000285FD0606800285CD180
:101070000120DBE700BF6068B0F5803F06D1E7489C
:10108000006840F48030E549086028E0606858B99D
:10109000E248006820F48030E049086008460068B3
:1010A00020F4802008601AE06068B0F5A02F0BD112
:1010B000DA48006840F48020D84908600846006893
:1010C00040F4803008600AE0D448006820F48030A2
:1010D000D24908600846006820F48020086000BFFC
:1010E000606888B1FFF7B8FD054606E0FFF7B4FD7C
:1010F000401B642801D9032098E7C848006800F421
:1011000000300028F2D010E0FFF7A6FD054606E00B
:10111000FFF7A2FD401B642801D9032086E7BF48E2
:10112000006800F400300028F2D1207800F00200BE
:10113000022857D1B948406800F00C0050B1B748B8
:10114000406800F00C00082818D1B448406800F44A
:10115000803098B9B148006800F0020020B12069E1
:10116000012801D0012061E7AC48006820F0F800B8
:10117000616940EAC100A949086033E02069E8B12B
:101180000120A7490860FFF767FD054606E0FFF765
:1011900063FD401B022801D9032047E79F480068F0
:1011A00000F002000028F2D09C48006820F0F8000F
:1011B000616940EAC1009949086013E0002098493C
:1011C0000860FFF749FD054606E0FFF745FD401BB7
:1011D000022801D9032029E79048006800F00200A6
:1011E0000028F2D1207800F0080008282DD1A0694D
:1011F000B8B101208B490860FFF72EFD054606E0D7
:10120000FFF72AFD401B022801D903200EE783487F
:10121000406A00F002000028F2D0012001F084F8BA
:1012200013E000207F490860FFF716FD054606E041
:10123000FFF712FD401B022801D90320F6E677488C
:10124000406A00F002000028F2D1207800F004008B
:10125000042873D100277148C06900F0805070B92C
:1012600000BF6E48C06940F080506C49C8610846B4
:10127000C06900F08050009000BF00BF01276A489D
:10128000006800F48070B0B96748006840F480706E
:1012900065490860FFF7E0FC054606E0FFF7DCFC67
:1012A000401B642801D90320C0E65F48006800F4B1
:1012B00080700028F2D000BFE068012806D15748AE
:1012C000006A40F001005549086227E0E06858B91B
:1012D0005248006A20F00100504908620846006A3E
:1012E00020F00400086219E0E06805280BD14B48A3
:1012F000006A40F00400494908620846006A40F06C
:10130000010008620AE04548006A20F001004349F4
:1013100008620846006A20F00400086200BFE06826
:10132000A0B1FFF799FC054609E0FFF795FC401BCB
:1013300041F28831884202D9032077E622E037481B
:10134000006A00F002000028EFD012E0FFF784FCF2
:10135000054608E0FFF780FC401B41F288318842D7
:1013600001D9032062E62D48006A00F0020000283F
:10137000F0D1012F05D12948C06920F080502749BC
:10138000C86100BFE069C8B32448406800F00C00A1
:10139000082860D0E069022848D10020204908666A
:1013A000FFF75AFC054606E0FFF756FC401B0228F3
:1013B00001D903203AE61948006800F000700028BF
:1013C000F2D1206AB0F5803F07D11448406820F47C
:1013D0000030A168084311494860D4E90801084376
:1013E0000E49496821F4741108430C4948600120F2
:1013F0000B490866FFF730FC054607E03DE0FFF7C4
:101400002BFC401B022801D903200FE6034800688B
:1014100000F000700028F2D02FE000000010024021
:101420000000424280044242007000400020144903
:101430000866FFF711FC054606E0FFF70DFC401BB0
:10144000022801D90320F1E50E48006800F0007081
:101450000028F2D111E0E069012800D1E6E5094851
:10146000466806F48031206A814204D106F4701186
:10147000606A814201D00120D8E50020D6E5000055
:101480000000424200100240042808D14FF0E02141
:10149000096941F004014FF0E022116107E04FF0CB
:1014A000E021096921F004014FF0E0221161704749
:1014B00070B504462546681EB0F1807F01D3012037
:1014C0000FE0681E4FF0E02148610F214FF0FF3020
:1014D00001F046FB00204FF0E02188610720086101
:1014E000002070BD7047704710B504460CB901204C
:1014F00010BD94F83D0028B9002084F83C00204637
:1015000000F00CF8022084F83D00211D206801F055
:1015100015F8012084F83D000020E9E770470146F6
:101520000868C06840F001000B68D86008688068EF
:1015300000F00702062A05D00868006840F00100A4
:101540000B68186000207047704710B5044620688B
:101550000069C0F34000D8B12068C068C0F3400003
:10156000B0B16FF002002168086101202077206887
:10157000806900F0030018B12046FFF7E5FF05E0A1
:10158000204600F0ADF8204600F04AF90020207710
:1015900020680069C0F38000D8B12068C068C0F33B
:1015A0008000B0B16FF0040021680861022020774C
:1015B0002068806900F4407018B12046FFF7C4FF2E
:1015C00005E0204600F08CF8204600F029F90020C4
:1015D000207720680069C0F3C000D8B12068C068D7
:1015E000C0F3C000B0B16FF00800216808610420AA
:1015F00020772068C06900F0030018B12046FFF78B
:10160000A3FF05E0204600F06BF8204600F008F943
:101610000020207720680069C0F30010D8B120684E
:10162000C068C0F30010B0B16FF01000216808610D
:10163000082020772068C06900F4407018B1204667
:10164000FFF782FF05E0204600F04AF8204600F050
:10165000E7F8002020772068006900F0010058B109
:101660002068C06800F0010030B16FF0010021680F
:101670000861204600F054F920680069C0F3C010EA
:1016800058B12068C068C0F3C01030B16FF080005E
:10169000216808612046FFF725FF20680069C0F334
:1016A000801058B12068C068C0F3801030B16FF06E
:1016B000400021680861204600F04AF9206800696E
:1016C000C0F3401058B12068C068C0F3401030B17A
:1016D0006FF02000216808612046FFF704FF10BD6D
:1016E000704770B504460D46164600BF94F83C009E
:1016F000012801D1022070BD012084F83C0000BF08
:10170000022084F83D0036B1042E1BD0082E31D0C3
:101710000C2E5ED145E02946206800F06FFF20685E
:10172000806940F00800216888612068806920F0A5
:10173000040021688861206880692969084321685C
:10174000886147E02946206800F090FF20688069A2
:1017500040F40060216888612068806920F480601E
:101760002168886120688069296940EA0120216830
:1017700088612FE02946206800F0B6FF2068C06924
:1017800040F008002168C8612068C06920F00400AA
:101790002168C8612068C069296908432168C86157
:1017A00018E02946206800F0DBFF2068C06940F49B
:1017B00000602168C8612068C06920F480602168E9
:1017C000C8612068C069296940EA01202168C861B0
:1017D00000E000BF00BF012084F83D0000BF0020F2
:1017E00084F83C0000BF00BF85E710B504460CB983
:1017F000012010BD94F83D0028B9002084F83C0079
:10180000204600F00CF8022084F83D00211D2068DD
:1018100000F094FE012084F83D000020E9E77047C5
:101820007047000070B504460E460122314620681C
:1018300000F0D2FE0F492068884203D00E4920688C
:10184000884201D1012000E0002028B12068406CCE
:1018500040F40040216848642068806800F0070573
:10186000062D05D02068006840F00100216808605E
:10187000002070BD002C01400034014070B50446CA
:101880000D4635B1042D0BD0082D10D00C2D1CD1D8
:1018900014E02068C06840F002002168C86015E0CC
:1018A0002068C06840F004002168C8600EE020682D
:1018B000C06840F008002168C86007E02068C06880
:1018C00040F010002168C86000E000BF00BF0122A6
:1018D0002946206800F080FE0F492068884203D026
:1018E0000E492068884201D1012000E0002028B183
:1018F0002068406C40F4004021684864206880689B
:1019000000F00706062E05D02068006840F00100B0
:1019100021680860002070BD002C014000340140A7
:1019200010B504460748844204D107480068401CAB
:10193000054908600548844202D1022000F04CFAB3
:1019400010BD00001C06002024000020DC05002043
:10195000704770472DE9F047044620680568206805
:10196000C668206847694FF00008C14605F00F08B7
:10197000B8F1000F0AD105F0200038B106F02000C0
:1019800020B1204600F040FFBDE8F087B8F1000F1D
:101990006DD007F0010018B906F49070002866D0E9
:1019A00005F0010030B106F4807018B1E06B40F032
:1019B0000100E06305F0040030B107F0010018B148
:1019C000E06B40F00200E06305F0020030B107F088
:1019D000010018B1E06B40F00400E06305F008007E
:1019E00030B107F0010018B1E06B40F00800E0638F
:1019F000E06B68B305F0200028B106F0200010B1BC
:101A0000204600F001FF20684069C0F38019E06BB8
:101A100000F0080010B9B9F1000F22D0204600F004
:101A2000D3FE2068406900F04000B0B120684069F2
:101A300020F0400021684861606B50B11748616B2D
:101A40004863606BFEF772FE10B1606B416B8847B4
:101A50000CE02046FFF77DFF08E02046FFF779FF06
:101A600004E02046FFF775FF0020E0638CE705F0F7
:101A7000800030B106F0800018B1204600F0E8FF89
:101A800082E705F0400030B106F0400018B1204672
:101A900000F0AAFE78E700BF76E70000B52700084F
:101AA00010B504460CB9012010BDA06900B100E0DA
:101AB00000BF94F8390028B9002084F83800204687
:101AC00000F028F8242084F839002068C06820F449
:101AD00000502168C860204600F0EAFE20680069D6
:101AE00020F49040216808612068406920F02A00B5
:101AF000216848612068C06840F400502168C860CF
:101B00000020E063202084F8390084F83A000020A7
:101B1000CAE7000010B586B00446494920688842EB
:101B200043D100BF4748806940F0040045498861BF
:101B30000846806900F00400019000BF00BF00BFAC
:101B40000846C06940F40030C8610846C06900F426
:101B50000030019000BF00BF00BF0846806940F020
:101B6000010088610846806900F00100019000BF13
:101B700000BF042002900220039001200490032063
:101B8000059002A93048FEF7B9FE08200290002017
:101B9000039002A92C48FEF7B1FE2620FFF7A9F812
:101BA000032211462620FFF7B4F82849206888420E
:101BB00044D100BF2348806940F008002149886172
:101BC0000846806900F00800019000BF00BF00BF18
:101BD0000846C06940F48020C8610846C06900F426
:101BE0008020019000BF00BF00BF0846806940F020
:101BF000010088610846806900F00100019000BF83
:101C000000BF0815029002200390012004900320D9
:101C1000059002A90E48FEF771FE4FF40060029095
:101C20000020039002A90A48FEF768FE2720FFF76C
:101C300060F8022203212720FFF76BF806B010BDE1
:101C400000440040001002400008014000480040ED
:101C5000000C014010B5034693F83A0020282FD11C
:101C600001B10AB9012010BD00BF93F83800012866
:101C700001D10220F7E7012083F8380000BF996204
:101C80009A85DA850020D863222083F83A0000BFC5
:101C9000002083F8380000BF1868C06840F48070E6
:101CA0001C68E0601868406940F001001C686061D1
:101CB0001868C06840F020001C68E0600020D2E78F
:101CC0000220D0E710B5044627492068884222D177
:101CD000012226492648FFF7BDFFC8B923480078EE
:101CE0000A280AD100202349234A1288885422490D
:101CF00008800120214908700DE01C4801781E4829
:101D000002880088401C1C4B18801A48815402E04D
:101D10001BA0FEF781FA1E492068884222D10122C9
:101D200012491C48FFF796FFC8B9104800780A28E6
:101D30000AD100200F49184A128888541649088091
:101D40000120164908700DE0084801781248028801
:101D50000088401C104B18800648815402E008A0FF
:101D6000FEF75AFA10BD0000004400403200002087
:101D70001C0100209C0100203400002038000020BD
:101D800072656365697665206661696C640A000046
:101D9000004800405C01002036000020390000208F
:101DA000704700BFFEE7000001464906084A9269F5
:101DB00042F00102064B9A61064A526822F0E06244
:101DC000044B5A601A4652680A435A607047000032
:101DD000001002400000014070B5044634B90022F2
:101DE0004FF400410E48FEF731FF18E0012C05D1F9
:101DF0000122D1030A48FEF729FF10E0022C0ED180
:101E0000A1030748FEF71AFF08B9012000E00020EF
:101E100005462A464FF400410148FEF717FF70BD02
:101E2000000C014000B585B000BF1048806940F04B
:101E300008000E4988610846806900F0080000909B
:101E400000BF00BF4FF400400190012002900390BA
:101E50000320049001A90648FEF750FD00224FF42C
:101E600000410348FEF7F2FE05B000BD001002403D
:101E7000000C014038B504460D4600BF1148C0694A
:101E800040F001000F49C8610846C06900F0010038
:101E9000009000BF00BF88040B49086008464560F9
:101EA00000218160C4600161FFF71EFB0648FFF757
:101EB00036FB012200211C20FEF72BFF1C20FEF721
:101EC00018FF38BD001002401C06002000BFFEE7CE
:101ED00070B506460C461546002E07DD1C48066008
:101EE000002281141B48FEF7B1FE07E0704218493A
:101EF0000860012289141748FEF7A8FE002C08DDAF
:101F00001348001D0460002241141248FEF79EFE93
:101F100008E060420E49091D0860012249140D487D
:101F2000FEF794FE002D09DD094808300560002207
:101F30004FF480410748FEF789FE08E068420449F3
:101F400008310860012291030248FEF77FFE70BD50
:101F5000342C0140000C014000B585B000BF224880
:101F6000806940F40060204988610846806900F477
:101F70000060009000BF00BF00BF0846806940F0CD
:101F8000040088610846806900F00400009000BFEA
:101F900000BF00BF0846806940F00800886108461D
:101FA000806900F00800009000BF00BF4FF4E060BF
:101FB0000190022002900320049001A90B48FEF733
:101FC0009DFC4FF4E040019001200290032004901A
:101FD00001A90748FEF792FC002141F61F4000F0DE
:101FE0004BFA05B000BD000000100240000801409F
:101FF000000C0140704770B5002415E004F1B001F9
:10200000C8B200F01BF9012000F018F9102000F010
:1020100015F9002504E0002000F04AF9681CC5B25B
:10202000842DF8DB601CC4B2082CE7DB70BD000017
:1020300000B585B000BF4E48806940F010004C49A3
:1020400088610846806900F01000009000BF00BF62
:1020500000BF0846806940F0040088610846806936
:1020600000F00400009000BF00BF4FF460400190FA
:10207000012002900320049001A93E48FEF73EFC97
:102080000120019002900320049001A93A48FEF734
:1020900035FC0122D1033748FEF7D8FD00224FF46A
:1020A00000513448FEF7D2FD322000F081FD0122BC
:1020B00051033048FEF7CAFDAE2000F0BFF8002003
:1020C00000F0BCF8102000F0B9F8402000F0B6F89D
:1020D000812000F0B3F8CF2000F0B0F8A12000F08C
:1020E000ADF8C82000F0AAF8A62000F0A7F8A820B4
:1020F00000F0A4F83F2000F0A1F8D32000F09EF8F3
:10210000002000F09BF8D52000F098F8802000F027
:1021100095F8D92000F092F8F12000F08FF8DA203D
:1021200000F08CF8122000F089F8DB2000F086F82F
:10213000402000F083F8202000F080F8022000F01A
:102140007DF88D2000F07AF8142000F077F8A420B4
:1021500000F074F8A62000F071F8AF2000F06EF8DF
:10216000FFF749FF0021084600F03AF805B000BD2E
:102170000010024000100140000801402DE9F04726
:102180000446884615464FF000090026002720E047
:10219000E85D203800F0FF097E2C04DD002408F102
:1021A000010000F0FF084146204600F019F8002623
:1021B00009E009EB4901094A02EB4101885D00F0A1
:1021C00077F8701CC6B2062EF3DBA01DC4B2781CD3
:1021D000C7B2E85D0028DBD1BDE8F0873C360008D7
:1021E00070B504460D4605F1B001C8B200F026F8FE
:1021F000102141EA141000F021F804F00F0000F063
:102200001DF870BD70B50026002411E02146102095
:10221000FFF7E6FF0E2507E03146761C064A505CC4
:1022200000F046F8681CC5B2762DF5DB601CC4B220
:10223000082CEBDB70BD00007F41000870B5044640
:102240000825002201211848FEF700FD002229037D
:102250001648FEF7FBFC012000F05EFD1EE004F0D6
:10226000800028B1012291031048FEF7EFFC05E041
:1022700000224FF480410D48FEF7E8FC0122D10313
:102280000A48FEF7E3FC012000F046FD00224FF46F
:1022900000410648FEF7DAFC6006040E281EA5F190
:1022A0000101CDB2DBD170BD00080140001001403A
:1022B00070B504460825012211461848FEF7C6FCF1
:1022C000002229031648FEF7C1FC012000F024FD7E
:1022D0001EE004F0800028B1012291031048FEF7AF
:1022E000B5FC05E000224FF480410D48FEF7AEFC3E
:1022F0000122D1030A48FEF7A9FC012000F00CFDE1
:1023000000224FF400410648FEF7A0FC6006040ED0
:10231000281EA5F10101CDB2DBD170BD000801403E
:10232000001001407047000008B508490968C90855
:102330004FF47A72B1FBF2F14143009100BF00BF4C
:1023400000994A1E00920029F9D108BD44000020DE
:1023500010B5044634B1012C0CD0022C12D0032C41
:1023600020D117E010211148FEF768FC08B90120C0
:1023700010BD17E080210D48FEF760FC08B9012070
:10238000F6E70FE040210948FEF758FC08B90120A4
:10239000EEE707E020210548FEF750FC08B90120D0
:1023A000E6E700BF00BF0020E2E7000000080140B0
:1023B000704710B5FEF756FC10BD00B58FB0282150
:1023C00005A8FEF749F814216846FEF745F80120F4
:1023D000059000040690002007900120099002203B
:1023E0000C90C1030D914FF4E0110E9105A8FEF77A
:1023F00019FE08B100BFFEE70F20009002200190F7
:10240000002002904FF4806003900020049002218D
:102410006846FEF7D1FC08B100BFFEE70FB000BD73
:102420001148006840F001000F4908600846406804
:102430000E4908400C494860084600680C490840AD
:10244000094908600846006820F4802008600846B2
:10245000406820F4FE0048604FF41F008860C80305
:102460000449086070470000001002400000FFF8B7
:10247000FFFFF6FE08ED00E030B587B005460C46DC
:1024800019481A4908600846446000218160C56007
:102490000161FFF7AAF91548FFF741F860200090A5
:1024A000002001900290002269461048FFF719F9B8
:1024B000042269460D48FFF714F9082269460B48C3
:1024C000FFF70FF900210948FFF7ACF9042107488D
:1024D000FFF7A8F908210548FFF7A4F900210348F0
:1024E000FFF7CCF907B030BD002C01409C0500205F
:1024F00010B50248FFF729F810BD00001C060020A7
:1025000010B50648FFF721F8054800680448006840
:1025100020F001000249086010BD0000DC05002029
:1025200010040040044800680348006820F00100DF
:1025300001490860704700001008004010B50268AB
:10254000204B98420ED0204B98420BD0B0F1804FD8
:1025500008D01E4B984205D01D4B984202D01D4B0F
:10256000984203D122F070024B681A43154B9842EF
:102570000ED0154B98420BD0B0F1804F08D0134BC2
:10258000984205D0124B984202D0124B984203D188
:1025900022F44072CB681A4322F080034C6943EA6C
:1025A000040202608B68C3620B688362054B984229
:1025B00002D0054B984201D10B69036301234361AB
:1025C00010BD0000002C0140003401400004004018
:1025D00000080040000C004030B501F01F05012448
:1025E00004FA05F3046A9C430462046A01F01F05BF
:1025F00002FA05F52C43046230BD000030B5056ACF
:1026000025F001050562026A4368846924F07004BC
:1026100024F003040D682C4322F002028D682A4343
:10262000104DA84200D103E00F4DA84206D100BFD3
:1026300022F00802CD682A4322F00402094DA84284
:1026400002D0094DA84207D123F4807323F400730C
:102650004D692B438D692B43436084614D6845630D
:10266000026230BD002C01400034014030B5056AE3
:1026700025F010050562026A4368846924F4E04489
:1026800024F440740D6844EA052422F020028D6889
:1026900042EA0512124DA84200D103E0114DA842B2
:1026A00007D100BF22F08002CD6842EA051222F075
:1026B00040020B4DA84202D00A4DA84209D123F492
:1026C000806323F400634D6943EA85038D6943EA1F
:1026D0008503436084614D688563026230BD0000FC
:1026E000002C01400034014030B5056A25F48075A6
:1026F0000562026A4368C46924F0700424F003048C
:102700000D682C4322F400728D6842EA0522124DB6
:10271000A84200D103E0114DA84207D100BF22F426
:102720000062CD6842EA052222F480620A4DA84286
:1027300002D00A4DA84209D123F4805323F4005358
:102740004D6943EA05138D6943EA05134360C4618B
:102750004D68C563026230BD002C01400034014069
:1027600030B5056A25F480550562036A4468C2697C
:1027700022F4E04222F440720D6842EA052223F47A
:1027800000538D6843EA0533084DA84202D0084D36
:10279000A84204D124F480444D6944EA851444607D
:1027A000C2614D680564036230BD0000002C014029
:1027B0000034014070B505466C6A0020E085E08475
:1027C0002046FFF7C6F870BD0168C96821F4907112
:1027D0000268D1600168496921F001010268516114
:1027E000202180F83A10704710B504462068C06870
:1027F00020F040002168C860202084F8390020467D
:10280000FFF7CEFA002010BD70B5044694F83A00E8
:1028100022284AD1A068B0F5805F13D1A56A20694B
:1028200040B920684068C0F308002880A06A801C76
:10283000A06219E020684068C0B22880A06A401CED
:10284000A06211E0206938B920684068C1B2A26A6C
:10285000501CA062117007E02068406800F07F0102
:10286000A26A501CA0621170E08D401E80B2E0850B
:10287000C8B92068C06820F020002168C8602068BE
:10288000C06820F480702168C8602068406920F02A
:10289000010021684861202084F83A002046FFF7B3
:1028A00011FA002070BD0020FCE70220FAE70000CA
:1028B00070B504462168096921F44051E26811436A
:1028C000226811612269A1681143626941EA020527
:1028D0002168C96841F20C62914329432268D160A2
:1028E0002168496921F44071A2691143226851614C
:1028F000564A2168914254D1FEF73AFB00EBC001E1
:1029000001EB001162689200B1FBF2F100EBC00232
:1029100002EB001263689B00B2FBF3F26423B2FB8C
:10292000F3F202EBC20303EB0212A1EB82013222AB
:1029300002EB01116422B1FBF2F101F0F00100EBB6
:10294000C00202EB001263689B00B2FBF3F2642347
:10295000B2FBF3F201EB021200EBC00101EB00113C
:1029600063689B00B1FBF3F100EBC00303EB0013C2
:102970006668B600B3FBF6F36426B3FBF6F303EB2D
:10298000C30606EB0313A1EB8301322303EB011112
:102990006423B1FBF3F101F00F011144226891604F
:1029A00053E0FEF7D5FA00EBC00101EB00116268BD
:1029B0009200B1FBF2F100EBC00202EB001263687F
:1029C0009B00B2FBF3F26423B2FBF3F202EBC2030F
:1029D00003EB0212A1EB8201322202EB011164220D
:1029E000B1FBF2F101F0F00100EBC00202EB0012CA
:1029F00063689B00B2FBF3F26423B2FBF3F201EBDA
:102A0000021200EBC00101EB001163689B00B1FBF7
:102A1000F3F100EBC00303EB00136668B600B3FBF1
:102A2000F6F36426B3FBF6F303EBC30606EB0313DE
:102A3000A1EB8301322303EB01116423B1FBF3F11A
:102A400001F00F0111442268916070BD003801400F
:102A5000014691F8390021282CD18868B0F5805FB3
:102A60000FD10A6A1088C0F308000B685860086923
:102A700018B9086A801C086209E0086A401C0862EC
:102A800005E00B6A581C086218780B685860C88CFF
:102A9000401E80B2C88458B90868C06820F0800021
:102AA0000B68D8600868C06840F040000B68D860C8
:102AB000002070470220FCE710B50248FEF74AFFED
:102AC00010BD00001C01002010B50248FEF742FFB7
:102AD00010BD00005C01002000B585B000BF1948A2
:102AE000806940F00800174988610846806900F055
:102AF0000800009000BF00BF48150190012002901F
:102B000003900320049001A90F48FDF7F7FE4FF44E
:102B10008070019000200290022003900320049016
:102B200001A90948FDF7EAFE00224FF400710648AA
:102B3000FEF78CF8002140F2CF20FFF79BF905B09B
:102B400000BD000000100240000C014000BFFEE785
:102B500002480068C0F30220704700000CED00E05E
:102B600010B5002804DB0A07130E054A135406E0CB
:102B70000A07140E034A00F00F031B1FD45410BDA4
:102B800000E400E018ED00E030380A2801D201200E
:102B900070470020704700BF7047000010B5044622
:102BA0000420FEF771FC0148046010BD28000020DD
:102BB00030B50446002504E04FF47A7000F004F8C4
:102BC0006D1CA542F8D330BD70B5034600224FF00E
:102BD000E02675690D4E366803FB06F44FF0E026DB
:102BE000B16910E04FF0E026B06988420BD088420E
:102BF00002D20E1A324402E02E1A0E44324401462A
:102C0000A24200D300E0EDE700BF70BD2800002025
:102C100000BF054A126802F04002002AF9D0C2B291
:102C2000014B1B1D1A607047004400402DE9F04322
:102C300005460E4617469846DDF81C90002400BF56
:102C400009E005EB8400494600F02AF810B10020A5
:102C5000BDE8F083641C032CF3DB002408E007EBE1
:102C60008400494600F01CF808B10120F0E7641C1C
:102C7000022CF4DB002408E006EB8400494600F057
:102C80000FF808B10220E3E7641C032CF4DB49468B
:102C9000404600F005F808B10420D9E70320D7E743
:102CA00002460878137898420DD1487853789842B4
:102CB00009D188789378984205D1C878D37898421A
:102CC00001D1012070470020FCE70246002029B90D
:102CD000232A01DA012006E0002004E02D2A01DD8C
:102CE000002000E0012070472DE9F04104460D4628
:102CF00016461F46B4F5E15F07DA054C054D6642FE
:102D0000324629462046FFF7E3F8BDE8F08100008F
:102D10000CFEFFFF50FBFFFF00E000BF011EA0F113
:102D20000100FAD17047000094B000BF00BF00BF9F
:102D300000BF00BF00BF4FF00009CA46CB460026C7
:102D40000027FDF79BFFFFF738FB4820FFF726FF22
:102D50000120FFF729F84FF4E131032000F090F94A
:102D60004FF4E131022000F08BF9FFF7B5FEFFF7D9
:102D700059F8FFF75DF9FFF745FA4FF4FA70FFF7DE
:102D800017FFFFF738F9FFF7E7F80024ECE0FDF74D
:102D900055FC87B23A4675A103A8FDF749FA03AA84
:102DA00002213C20FFF7EAF90020FFF7D1FA8DF865
:102DB0004C000120FFF7CCFA8DF84D000220FFF700
:102DC000C7FA8DF84E000320FFF7C2FA8DF84F00C6
:102DD0009DF84F009DF84E10CDE900109DF84D3044
:102DE0009DF84C2064A103A8FDF722FA03AA022152
:102DF0000020FFF7C3F90220FEF7EEFF13A8614B96
:102E0000614A624900906248FFF710FF80463146F0
:102E10003846FFF75AFF0646012E08D15D4A4FF4A7
:102E20007A714FF41670FFF753F82B249CE0B8F139
:102E3000000F09D0B8F1010F1ED0B8F1020F33D046
:102E4000B8F1040F7DD147E053A203210020FFF722
:102E500095F903AB5A4651464846FFF745FF9DF8A2
:102E60004C00012805D19DF84D00012801D1012514
:102E700000E00025002476E049A203210020FFF7AE
:102E80007DF903AB5A465146484600F0E3F89DF8F9
:102E90004C00012805D19DF84D00012801D10125E4
:102EA00000E0002500245EE03FA203210020FFF7A0
:102EB00065F903AB5A465146484600F08FF89DF835
:102EC0004C00012805D19DF84D00012801D10125B4
:102ED00000E00025002446E035A203210020FFF792
:102EE0004DF9012D10D1142C0EDA5A4651464846A0
:102EF00000F08CF8224630A103A8FDF799F903AA47
:102F000005211020FFF73AF90125641C95B1142C16
:102F100010DB382C0EDA5A465146484600F088F845
:102F2000224628A103A8FDF783F903AA0521102052
:102F3000FFF724F9382C07DB40F24C4224490020EB
:102F400000E002E0FEF7C4FF0DE022A20321002012
:102F5000FFF714F903AB5A465146484600F07AF899
:102F60000025002400BF00BF11E700004469733D45
:102F700025336420636D00002564202564202564CA
:102F80002025640020000020180000200C000020F4
:102F90000000002004F7FFFF4C656674210000006C
:102FA0004C696E652100000052696768740000007A
:102FB0004F7574212100000072696768743A2532E8
:102FC000640000006C656674743A25326400000089
:102FD00050FBFFFF4572726F720000002DE9F04157
:102FE00004460D4616461F46B4F5E15F09DA4FF474
:102FF000FA74054D4FF49666324629462046FEF790
:1030000067FFBDE8F0810000A8FDFFFF70B5044632
:103010000D46164614F5E15F08DD4FF47A74254637
:103020002646324629462046FEF752FF70BD000074
:1030300070B504460D46164614F5E15F07DD044CF5
:1030400025462646324629462046FEF741FF70BDFA
:10305000B4FBFFFF2DE9F04104460D4616461F461E
:10306000B4F5E15F08DA0024044D40F63406324638
:1030700029462046FEF72CFFBDE8F0819AF7FFFFB6
:1030800070B505460C46022D02D0032D28D113E061
:103090001448154908600846446000218160C160F9
:1030A000016181610C214161FEF7FAFC01220F49A7
:1030B0000D48FEF7CFFD00BF0D480E4908600846D9
:1030C000446000218160C160016181610C21416126
:1030D000FEF7E6FC012205490648FEF7BBFD00BFEE
:1030E00000BF70BD004400401C01002032000020E1
:1030F000004800405C010020491058BFC1F1404128
:103100005B1058BFC3F140438B42EFF30080704720
:10311000B0FA80F310FA03F10AD0C3F11D0303F5EE
:1031200080634FEA41504FEA035202EBD1217047CE
:103130004FF000007047000051EA030C17D41CF553
:10314000801F58BFBCF5801F00F10680994218BF50
:10315000704708BF9042704707D711F5801F58BFCE
:1031600013F5801F19D499427047894270471CF5A6
:10317000801F08D5BCF5801FF7D58B4218BF70475C
:1031800008BF824270474FF4001C1CEB410F38BF50
:103190001CEB430F01D28B42704770B500F008F86A
:1031A000922449004FF000514FF08053FFF7A4BF25
:1031B0000EF1020E2EF0030E5EF8046B364205D4BB
:1031C000012A43EB030515F5001F12D8012841EB36
:1031D000010C1CF5001F0CD80ED14FEAD17C15F55F
:1031E000001F0CEB4C0C0CF1020C08BF4CEBD37C19
:1031F00004E04FF0080C01E04FEAD37C0CEB4C05E7
:1032000026FA05F606F00706B6F1040C06D20EEB18
:10321000860CBDE870404CF0010C6047DFE80CF014
:10322000090B02024FF000414FF00000A1F5002110
:1032300070BD19461046012851EB010418BFD4F5A2
:10324000001484BF002001F0004170BD53EA010C5E
:1032500017D41CF5801F58BFBCF5801F00F10680F5
:103260008B4218BF704708BF8242704707D713F5DB
:10327000801F58BF11F5801F19D48B4270479B42A5
:1032800070471CF5801F08D5BCF5801FF7D5994203
:1032900018BF704708BF904270474FF4001C1CEBEA
:1032A000430F38BF1CEB410F01D2994270470FB456
:1032B0000CBC03BCFFF771BF4FF47F0C1CEAD012AB
:1032C0001EBF1CEAD11392EA0C0F93EA0C0F00F018
:1032D000858090EA010F48BF42F4807240F4000CF0
:1032E00041F400002CF07F4120F07F4000B5814286
:1032F000A2EB03020FF2081CACEB504EC0F1000031
:103300009EF800E04FEA4E0E00FB0EFC38BF49006D
:103310004FEA2C1C02F5FA020CFB0EF34FEACE1E0C
:103320004FEA112C4FEAC1210EEB635E42EB2242C1
:103330000EFB0CFC4FEA1C5300FB03114FEA112C4F
:103340004FEA01310EFB0CFC4FEADC4C00FB0C1188
:10335000C14228BF09184CEB03335DF804EB10EBB6
:10336000410143EBC250B2F57C0F38BF704729D5FD
:1033700012F0F00F1CBF00F1C04000F00040704799
:10338000008182838485868788898B8C8D8E8F913E
:103390009293959697999A9C9D9FA0A2A3A5A7A862
:1033A000AAACAEB0B2B3B5B7B9BCBEC0C2C5C7C98E
:1033B000CCCED1D4D7D9DCDFE2E6E9ECF0F3F7FAF2
:1033C000FE0000004FEA400C0CF1807CBCF17E4F07
:1033D00028BF7047B0F1C04000F02BB990EA010F50
:1033E0000CEAD11348BF42F48072624538BF63458E
:1033F00007D213F47F0F16D080EA010000F00040DE
:10340000704710B500F0CFF8097EFC3E00F005B81B
:1034100080EA010000F00040704780EA010000F0FF
:10342000004000F006B912F47F0F04BF0248704755
:1034300080EA010000F0FDB80000C07FC10DD1F1AD
:103440009E0206DB4FEA002343F0004323FA02F01A
:103450007047004207D54FEA4001B1F1FE4F02D25A
:103460004FF00000704710B500F09DF8499224809D
:10347000002070476FEA200070470000B0FA80F328
:1034800010FA03F2C3F19D030AD0D90501EB122013
:10349000530638BF704700F1010008BF20F001005B
:1034A000704700004FF47F0C1CEAD0121EBF1CEACC
:1034B000D11392EA0C0F93EA0C0F00F0478090EAC8
:1034C000010F48BF42F480724FF0004C4CEA0020DC
:1034D0004CEA012102EB0302A0FB0113A2F500025A
:1034E000002918BF43F001035B0028BF4FEA3303F4
:1034F00042EB22425FEA132C4CEBC2502EBFBCEBD6
:10350000436FB2F57C0F70474FEA036CBCF1004F7C
:1035100008BF20F00100B2F57C0F38BF70470BD513
:1035200082F0FF0212F5803FC8BF704700F1C04033
:10353000D8BF00F00040704700F5000C5FEA4C0C6B
:1035400048BF7047B0F1C04000F073B890EA010F77
:103550000CEAD11348BF42F48072624538BF63451C
:1035600004D280EA010000F00040704710B500F07E
:103570001AF800BF8900013E00F007B800F009B852
:103580005FEA410C5FEA1C6C08D080EA010000F0A1
:1035900050B85FEA400C5FEA1C6CF6D14FF0004077
:1035A000A0F5800070470EF1020E2EF0030E5EF8BB
:1035B000044B244204D44FEA4102B2F17F4F11D8A8
:1035C0004FEA4003B3F17F4F0CD80ED14FEAD07CC5
:1035D000B2F17F4F0CEB4C0C0CF1020C08BF4CEB22
:1035E000D17C04E04FF0080C01E04FEAD17C0CEBF9
:1035F0004C0324FA03F404F00704B4F1040C06D2DB
:103600000EEB840CBDE810404CF0010C6047DFE885
:103610000CF0070802024FF00040A0F5800010BD3A
:103620000846420018BFD2F1807288BF00F0004007
:1036300010BDFF2141EAD050C005704700000000D6
:1036400000000000002F0000000007000700001429
:103650007F147F1400242A7F2A1200626408132337
:1036600000364955225000000503000000001C22CE
:103670004100000041221C000014083E081400080C
:10368000083E0808000000A06000000808080808BC
:10369000000060600000002010080402003E514954
:1036A000453E0000427F40000042615149460021F2
:1036B00041454B31001814127F100027454545390C
:1036C000003C4A4949300001710905030036494967
:1036D000493600064949291E000036360000000020
:1036E000563600000008142241000014141414146B
:1036F0000000412214080002015109060032495914
:10370000513E007C1211127C007F49494936003E2F
:1037100041414122007F4141221C007F49494941EA
:10372000007F09090901003E4149497A007F0808E4
:10373000087F0000417F4100002040413F01007FA1
:1037400008142241007F40404040007F020C027F6D
:10375000007F0408107F003E4141413E007F09097F
:103760000906003E4151215E007F091929460046A5
:10377000494949310001017F0101003F4040403F7C
:10378000001F2040201F003F4038403F00631408C6
:1037900014630007087008070061514945430000A1
:1037A0007F41410000552A552A55000041417F00C4
:1037B00000040201020400404040404000000102B9
:1037C0000400002054545478007F484444380038A2
:1037D0004444442000384444487F0038545454182A
:1037E00000087E0901020018A4A4A47C007F08043C
:1037F00004780000447D4000004080847D00007F0C
:10380000102844000000417F4000007C0418047828
:10381000007C0804047800384444443800FC242424
:1038200024180018242418FC007C0804040800480C
:103830005454542000043F444020003C4040207C2D
:10384000001C2040201C003C4030403C004428101C
:103850002844001CA0A0A07C004464544C441414D0
:1038600014141414B1B1BEA9B5E7D7D3BFC6BCBCFC
:10387000D6B0D2B5D1A7D4BAC1FAC7F1D6C7C4DC85
:10388000BBFAC6F7C8CBD2A3BFD8C6F7BDD3CAD53B
:10389000B7A2CBCDB0B4BCFCA3BA0020202020FE40
:1038A000000000FE8040201000101008047F00007F
:1038B000003F40404070000808E828282A2C2828AB
:1038C00028E80808000020130A42427E02020A1378
:1038D00020000000F090909090FE90909090F0006A
:1038E00000000F040404043F444444444770008033
:1038F0008282828282C2A2928A8682800000000036
:103900000040407F00000000000000404848F844AC
:103910004420C41800FE0000000804037F020402D3
:103920000202027F0101001010FE1000909090FE34
:10393000909010000042427F01404023140814235D
:1039400040400004FC2424FC0400FC040404FC00AB
:1039500000101F11097F084033020202136000109B
:10396000608000FE000000FE0080700000404043C8
:10397000407F4040407F4241404000701092949010
:103980009294909894121070000404040444447EAD
:1039900006050404040400FC04649C001848484A1A
:1039A0004C484818007F0808074022120E02023EC9
:1039B00042620020202020A07E20E0242820A02099
:1039C000004020100C2320103F4442414070000072
:1039D000FC444444C24200FC0444B40C00101F10D8
:1039E00010080F08007F0010100F0028A6643C6428
:1039F000A420FC848484FC000001007E2A2A2A2A58
:103A00002A2A2A7E00000010989492909830003E56
:103A10004848447400007F0A0A4A7F00003F44443B
:103A20004271001090FE901000FC040404FC0000A1
:103A30000002017F0041300F0000003F4070008015
:103A40009E9292929EC09E92B2D29E8000047C4A28
:103A50004A49780078494A4A7C0400000000000086
:103A6000807E80000000000000404020100C030019
:103A7000030C10204040004042CC00846C544CD4D5
:103A800044524E020040201F20425A52525F52526E
:103A90005A42001010FE100098482A0C0828489836
:103AA0000042427F01004042427E4242424000804A
:103AB0009E9292929EC09E92B2D29E8000047C4AB8
:103AC0004A49780078494A4A7C04001010FE105098
:103AD0004858EA4C685848400042427F01424A2E0A
:103AE00013122A2642020000F80000FE004020DEE9
:103AF0001010F01000000702017F00402017081688
:103B000021400000302C20A0702E202020242820CE
:103B100000100844424127291129254340400080D4
:103B200084980080929490F0909492800040201F9E
:103B300020405048464142445840001010FE1000BA
:103B4000B88888EA8C8888B80042427F01004044E7
:103B5000271808142340002050CE4800C8B820A8D9
:103B6000FEA8F8200002023F5228102F204A7F4A68
:103B70004A480000000080800000000000000000B3
:103B80000000000019190000000000000000000003
:103B90000000000000000000000000000000000025
:103BA0000000F800000000000000333000000000BA
:103BB000100C06100C060000000000000000004081
:103BC000C07840C0784000043F04043F0404000073
:103BD0007088FC08300000001820FF211E0000F053
:103BE00008F000E018000000211C031E211E000048
:103BF000F00888700000001E2123241927211010CE
:103C0000160E000000000000000000000000000090
:103C10000000E01804020000000007182040000027
:103C2000020418E0000000004020180700000040D7
:103C30004080F0804040000202010F0102020000BB
:103C40000000F0000000000101011F01010100005F
:103C50000000000000000080B070000000000000C4
:103C6000000000000000000001010101010101004D
:103C700000000000000000003030000000000000E4
:103C800000000080601804006018060100000000B9
:103C9000E010080810E000000F102020100F0000B6
:103CA0001010F8000000000020203F20200000003D
:103CB0007008080888700000302824222130000095
:103CC000300888884830000018202020110E00009D
:103CD00000C02010F8000000070424243F24000046
:103CE000F80888880808000019212020110E00001B
:103CF000E0108888180000000F112020110E00002D
:103D0000380808C83808000000003F000000000024
:103D100070880808887000001C222121221C0000E5
:103D2000E010080810E0000000312222110F00000E
:103D30000000C0C0000000000000303000000000A3
:103D40000000800000000000008060000000000013
:103D500000804020100800000102040810200040EC
:103D600040404040404000040404040404040000B7
:103D7000081020408000000020100804020100000C
:103D80007048080808F0000000003036010000C04C
:103D900030C828E810E0000718272423140B00007F
:103DA00000C038E0000000203C2302022738200831
:103DB000F8888888700000203F202020110E00C065
:103DC00030080808083800071820202010080008CC
:103DD000F808080810E000203F202020100F0008FD
:103DE000F88888E8081000203F20202320180008C9
:103DF000F88888E8081000203F200003000000C079
:103E00003008080838000007182020221E02000889
:103E1000F808000008F808203F210101213F200098
:103E20000808F8080800000020203F2020000000BB
:103E3000000808F8080800C08080807F00000008A3
:103E4000F888C028180800203F20012638200008E4
:103E5000F8080000000000203F202020203000084B
:103E6000F8F800F8F80800203F003F003F20000865
:103E7000F830C00008F808203F200007183F00E095
:103E80001008080810E0000F10202020100F000874
:103E9000F808080808F000203F210101010000E0B7
:103EA0001008080810E0000F18242438504F0008AC
:103EB000F8888888887000203F2000030C3020009C
:103EC000708808080838000038202121221C0018BA
:103ED0000808F8080818000000203F20000000082B
:103EE000F808000008F808001F202020201F000804
:103EF00078880000C83808000007380E010000F874
:103F00000800F80008F800033C0700073C0300081D
:103F10001868808068180820302C03032C30200893
:103F200038C800C83808000000203F2000000010FA
:103F3000080808C83808002038262120201800006A
:103F40000000FE020202000000007F40404000002E
:103F50000C30C000000000000000010638C0000066
:103F6000020202FE000000004040407F000000000E
:103F70000004020202040000000000000000000033
:103F80000000000000000080808080808080800031
:103F90000202040000000000000000000000000019
:103FA000008080808000000019242222223F200807
:103FB000F8008080000000003F112020110E00005A
:103FC00000008080800000000E11202020110000E1
:103FD0000000808088F800000E112020103F200093
:103FE00000808080800000001F2222222213000017
:103FF0008080F0888888180020203F202000000062
:1040000000808080808000006B949494936000080E
:10401000F8008080800000203F210000203F200029
:10402000809898000000000020203F202000000021
:104030000000809898000000C08080807F00000809
:10404000F8000080808000203F24022D30200000F6
:104050000808F8000000000020203F202000008019
:1040600080808080808000203F20003F20003F80B3
:1040700080008080800000203F210000203F200041
:1040800000808080800000001F202020201F0080F2
:104090008000808000000080FFA12020110E000021
:1040A00000008080808000000E112020A0FF808012
:1040B0008080008080800020203F212000010000BF
:1040C0000080808080800000332424242419000094
:1040D0008080E0808000000000001F202000008021
:1040E00080000000808000001F202020103F2080E2
:1040F0008080000080808000010E30080601008072
:10410000800080008080800F300C030C300F000096
:10411000808000808080000020312E0E31200080C1
:104120008080000080808080818E701806010000F1
:10413000808080808080000021302C22213000008F
:10414000000000807C020200000000003F404000B0
:10415000000000FF00000000000000FF0000000061
:1041600002027C800000000040403F000000000090
:10417000060101020204040000000000000000002B
:10418000000000000000000000000000000000002F
:10419000000000000000000000000000000000001F
:1041A0000000000000000000003F3F3F3F3FC0C054
:1041B000C0C0C000000000000000000000000000BF
:1041C00000000000000000000000000000000000EF
:1041D00000000000000000000000000000000000DF
:1041E00000000000000000000080C0E0E0F0F0F0FF
:1041F000F00000000000F0F0F0F0F0F0F0F0F0F06F
:10420000F0F0F0F0F0F0F0F0F0F0F0F0F0F0F0F0AE
:10421000F0F0F0F0F0F007070707070000000000DB
:104220000000000000E0F0F0F0000000000060E09E
:10423000E0C0000000000000C0E0E0E060606060FE
:104240007070303000E0E0E0E02060E0E0E040F05E
:10425000FEFFFFFFFFFFFFFFFF0000000000FFFF6A
:10426000FFFFFFFFFFFFFF1F1F1F1F1F1F1F1F1F3E
:104270001F1F1F1F1F1F1F1F1F1FFFFFFFFFFEFE10
:10428000FEFEFE0000000606060606C6FEFFFF1F35
:10429000070606FEFEFE06060686C6660600000047
:1042A000FFFFFFFF3030F0F0F0F0303000FFFFFF95
:1042B000FF4078FFFFFF80FFFFFFFFFFFFFFFFFFD3
:1042C000FF0000000000FFFFFFFFFFFFFFFFFF00F8
:1042D00000000000000000000000000000000000DE
:1042E0000000FFFFFFFFFFFFFFFFFF0000000000D7
:1042F000C0F0FEFF3F0780C0C06070FFFFFF0E07E9
:104300000301000000000000FFFFFFFF0000FFFFAF
:10431000FFFF000000FFFFFFFF0000FFFFFFFFFFA8
:10432000FFFFFFFFFFFFFFFFFF0000000000FFFF98
:10433000FFFFFFFFFFFFFF00000000000000000084
:1043400000000000000000000080FFFFFFFFFFFFF3
:10435000FFFFFF000000040F0F070300000301012F
:10436000000000070F0F0E0C0C0C0C0C0C000004CE
:1043700007070707060203030303030300070F0FE2
:1043800007030303030100FFFFFFFFFFFFFFFFFF22
:10439000FF0000000000FFFFFFFFFFFFFFFFFFFF28
:1043A000FFFFFFFFFFFFFFFFFFFFFFFFFFFFFFFF1D
:1043B000FFFFFFFFFFFFFFFFFFFFFF000000424284
:1043C00042FEFEFFE743434100061E3E3C3000FF35
:1043D000FFFFFF000000004040FFFFFFFF4000081C
:1043E0000808080808FFFFFFFF0808080808087FFA
:1043F000FFFFFFFFFFFFFFFFFFC0C0C0C0C0C1C184
:10440000C1C1C1C1C1C1C1C1C1C1C1C1C1C1C1C19C
:10441000C1C1C1C1010101010101FFFFFFFFFFFF98
:10442000FFFFFF000000FFFF00FFFFFF00FEFF0097
:1044300000030F1F1E1800FFFFFFFF808000008099
:1044400080FFFFFFFF400000021A7AFAF2E3838345
:10445000C3F2FE7E3E0E0000070F1F3F3F7F7F7FAF
:104460007F7F7F7F7F7F7F7F7F7F7F7F7F7F7F7F5C
:104470007F7F7F7F7F7F7F7F7F7F7F7F0000000048
:1044800000007F7F7F3F3F1F0F07000000007F7FFE
:10449000007F7F7F003F7F00000301010101017F5A
:1044A0007F7F7F0000000040607F7F7F3F00000033
:1044B000406070787D3F1F1F3F7F78706040000034
:1044C00000000000000000010203040607080900C4
:1044D00000000001020304040000080000000000C6
:1044E0000000020001000010084500080000002044
:1044F000540000006C0100085C45000854000020D6
:104500006C0C00008801000801010100010100009D
:104510000100000000000001000001010001010194
:104520000101010100010100000000000000000085
:10453000000000000000000000000000000000007B
:104540000000000000000000000000000024F40053
:0C4550000000000010000000010000004E
:0400000508000131BD
:00000001FF
