:020000040800F2
:10000000100C0020D50100083D1C0008431A000810
:10001000151B00082D060008D5260008000000006A
:10002000000000000000000000000000492100085E
:100030003106000800000000F51F00084B210008F1
:10004000EF010008EF010008EF010008EF010008D0
:10005000EF010008EF010008EF010008EF010008C0
:10006000EF010008EF010008EF010008EF010008B0
:10007000EF010008EF010008EF010008EF010008A0
:10008000EF010008EF010008EF010008EF01000890
:10009000EF010008EF010008EF0100083306000837
:1000A000EF010008EF010008EF010008EF01000870
:1000B000852200089D220008C1220008EF010008E7
:1000C000EF010008EF010008EF010008EF01000850
:1000D000EF010008EF010008B5260008C52600085A
:1000E000EF010008EF010008EF010008EF01000830
:1000F000EF010008EF010008EF010008EF01000820
:10010000EF010008EF010008EF010008EF0100080F
:10011000EF010008EF010008EF010008EF010008FF
:10012000EF010008EF010008EF010008EF010008EF
:1001300000F002F800F03FF80AA090E8000C8244BA
:100140008344AAF10107DA4501D100F034F8AFF297
:10015000090EBAE80F0013F0010F18BFFB1A43F0A5
:10016000010318474836000068360000103A24BFE3
:1001700078C878C1FAD8520724BF30C830C144BF0C
:1001800004680C607047000000230024002500264E
:10019000103A28BF78C1FBD8520728BF30C148BFEA
:1001A0000B607047642900F07F80002070471FB506
:1001B0001FBD10B510BD00F00BFA1146FFF7F7FF99
:1001C00002F000FB00F029FA03B4FFF7F2FF03BCD2
:1001D00002F0A5FA0948804709480047FEE7FEE714
:1001E000FEE7FEE7FEE7FEE7FEE7FEE7FEE7FEE7E7
:1001F00004480549054A064B70470000B92100082C
:100200003101000810060020100C0020100800200A
:1002100010080020704700000FB4044910B503AA6D
:10022000029800F0BBF910BC5DF814FB040000203C
:100230000FB41CB5074B06AA7B446946009005988D
:1002400000F093F90020694600F0A2F91CBC5DF8AB
:1002500014FB00005503000070B504468569006872
:10026000C10601D5302600E02026C00707D070BDAA
:10027000D4E9012130469047206A401C20626D1E5F
:10028000F6D570BD70B5044685690078C00707D102
:1002900070BDD4E9012120209047206A401C2062D3
:1002A0006D1EF6D570BD00002DE9F0410646002414
:1002B00010687529314616A510D0AFF300800028CC
:1002C00002DA404213A507E031688A0701D512A57A
:1002D00002E0490704D511A5012401E0AFF3008035
:1002E00000210A2206F1240709E0B0FBF2FCB0FB72
:1002F000F2F302FB1C00303078541846491C0028E9
:10030000F3D123462A463046BDE8F04100F0CFB88D
:10031000000000002D0000002B0000002000000065
:100320002DE9F05F894604464FF0000ADFF824B15A
:10033000FB44C0F820A02046E168884700287DD013
:10034000252806D0D4E901219047206A401C20626C
:10035000F1E700255F462046E168884720280646E9
:1003600007DB312E05D2B81910F8200C08B105436F
:10037000F1E7A80701D525F00405C4F81CA0002763
:10038000C4F818A02A2E09D0304602F0C1F938B3BB
:1003900004EB8708303EC8F8186019E059F8041BD0
:1003A000204604EB87029161E1688847012F0646E9
:1003B00018D1E069002820DA25F020051DE0D8F8E2
:1003C000180000EB800006EB40003038C8F8180039
:1003D0002046E1688847064602F09AF90028EED1E7
:1003E000012F0AD02E2E08D12046E16888477F1CB5
:1003F0000646022F45F02005C4DBA069002803DA79
:10040000404245F00105A061E80701D025F0100544
:10041000A6B1A6F14100192802D8203645F400659E
:100420004A463146204625604D46FFF7BBFE60B187
:10043000012807D0ED1D25F0070000E007E000F1DE
:10044000080978E705F1040975E730467AE7206A7C
:10045000BDE8F09F673400004FF0000200B513467E
:1004600094469646203922BFA0E80C50A0E80C50D4
:10047000B1F12001BFF4F7AF090728BFA0E80C5085
:1004800048BF0CC05DF804EB890028BF40F8042B7E
:1004900008BF704748BF20F8022B11F0804F18BFEB
:1004A00000F8012B704770477047704770472DE97F
:1004B000F0470D4699469246044600F1240801682B
:1004C000880604D5E06921F01001216000E00120D8
:1004D000A84201DD471B00E00027A1697A1902EB61
:1004E0000900081AA0612078C00602D42046FFF750
:1004F000B3FE002608E0D4E901211AF8060090476F
:10050000206A401C761C20624E45F4DB2078C00631
:100510000AD52046FFF7A0FE06E0D4E901213020ED
:100520009047206A401C2062381EA7F10107F4DCC6
:1005300007E0D4E9012118F805009047206A401C23
:100540002062281EA5F10105F3DC2046FFF79AFE84
:100550002078000602D50220BDE8F0870120FBE7E5
:1005600001694A1C02610878704700B58FB0CDE977
:1005700001310021059105497944CDE90310114667
:100580006846FFF7CDFE0FB000BD0000E5FFFFFF9E
:100590000A6802F8010B0A6070470000074B70B54B
:1005A0000D467B44FFF7E1FF0446284600F008F8BB
:1005B00010B14FF0FF3070BD204670BDF321000038
:1005C000007B00F08000704700487047AC050020B9
:1005D0007546FFF7F9FFAE4605006946534620F021
:1005E0000700854618B020B5FFF702FEBDE82040A1
:1005F0004FF000064FF000074FF000084FF0000BDF
:1006000021F00701AC46ACE8C009ACE8C009ACE891
:10061000C009ACE8C0098D46704710B50446AFF379
:1006200000802046BDE81040FFF7CEBD00BFFEE7CA
:10063000704710B5202000F0DBF810BD70B50446FF
:10064000002594F82100022803D00420A06301258E
:10065000C1E02068006820F00E0021680860206872
:10066000006820F00100216808605C492068884229
:1006700052D95A4978392068884201D1012047E08F
:10068000564964392068884201D1102040E053491E
:1006900050392068884201D1801539E04F493C39F2
:1006A0002068884201D1801432E04C492839206802
:1006B000884202D14FF480302AE04849143920683A
:1006C000884202D14FF4801022E0444920688842D9
:1006D00001D140041CE042492068884201D1012038
:1006E00016E03F4914312068884201D110200FE004
:1006F0003B4928312068884201D1801508E03849FB
:100700003C312068884201D1801401E04FF48030F0
:100710003349091F086051E0304978392068884220
:1007200001D1012047E02D4964392068884201D178
:10073000102040E0294950392068884201D18015B5
:1007400039E026493C392068884201D1801432E0E2
:10075000224928392068884202D14FF480302AE0AB
:100760001E4914392068884202D14FF4801022E0DB
:100770001A492068884201D140041CE018492068C9
:10078000884201D1012016E01549143120688842C1
:1007900001D110200FE0124928312068884201D190
:1007A000801508E00E493C312068884201D1801450
:1007B00001E04FF48030094980394860012084F815
:1007C000210000BF002084F8200000BF606B10B142
:1007D0002046616B8847284670BD000080000240BB
:1007E0000804024010B50446022001F045F910BD8E
:1007F00010B5044604480068204020B10248046057
:100800002046FFF7EFFF10BD140401402DE9F84723
:10081000024600239C467BE14FF0010808FA03F4EE
:10082000D1F8008008EA0400A0427DD1DFF8F4A2EC
:10083000D1F80480A8EB0A09D0453AD014DCB8F10D
:10084000030F50D009DCB8F1000F31D0B8F1010F1F
:100850001CD0B8F1020F49D120E0B8F1110F18D027
:10086000B8F1120F42D11EE0B9F5881F25D006DC81
:10087000B9F5803F20D0B9F5801F37D11AE0B9F51E
:10088000001F18D0B9F5041F30D117E0D1F80CC003
:100890002DE0D1F80C8008F1040C28E0D1F80C8090
:1008A00008F1080C23E0D1F80C8008F10C0C1EE0D4
:1008B00000BF00BF00BF00BF00BF00BFD1F808806D
:1008C000B8F1000F02D14FF0040C0BE0D1F8088012
:1008D000B8F1010F03D14FF0080C146102E04FF0A2
:1008E000080C546103E04FF0000C00E000BF00BFB3
:1008F000FF2801D8904601E002F104084646FF288F
:1009000002D84FEA830803E0A3F108084FEA8808F9
:100910004746D6F800804FF00F0909FA07F928EA90
:1009200009080CFA07F900E07AE048EA0908C6F875
:100930000080D1F8048008F08058B8F1805F6FD152
:1009400000BFDFF8E481D8F8188048F00108DFF82C
:10095000D891C9F81880C846D8F8188008F001085E
:10096000CDF8008000BF00BF4FEAB9384FEA9309C5
:1009700058F829504FEA83784FEA18794FF00F085A
:1009800008FA09F825EA0805DFF8A081424502D1F6
:100990004FF0000824E0DFF89881424502D14FF083
:1009A00001081DE0DFF88C81424502D14FF00208BA
:1009B00016E0DFF88481424502D14FF003080FE0D2
:1009C000DFF87881424502D14FF0040808E0DFF8F3
:1009D0007081424502D14FF0050801E04FF0060852
:1009E0004FEA83794FEA197908FA09F848EA0505C8
:1009F000DFF850814FEA930948F82950D1F8048074
:100A000008F48038B8F5803F0BD1DFF83C81D8F886
:100A1000008048EA0008DFF83091C9F800800AE059
:100A200075E0DFF82481D8F8008028EA0008DFF8B4
:100A30001891C9F80080D1F8048008F40038B8F59E
:100A4000003F0ED1DFF8008108F10408D8F80080DB
:100A500048EA0008DFF8F09009F10409C9F80080BD
:100A60000DE0DFF8E48008F10408D8F8008028EAF7
:100A70000008DFF8D49009F10409C9F80080D1F822
:100A8000048008F48018B8F5801F0ED1DFF8B88014
:100A900008F10808D8F8008048EA0008DFF8A890B4
:100AA00009F10809C9F800800DE0DFF89C8008F121
:100AB0000808D8F8008028EA0008DFF88C9009F1CF
:100AC0000809C9F80080D1F8048008F40018B8F5C6
:100AD000001F0ED1DFF8708008F10C08D8F80080F4
:100AE00048EA0008DFF8609009F10C09C9F80080B5
:100AF0000DE0DFF8548008F10C08D8F8008028EAEF
:100B00000008DFF8449009F10C09C9F800805B1C6B
:100B1000D1F8008028FA03F8B8F1000F7FF47CAE1A
:100B2000BDE8F887000011100010024000080140E5
:100B3000000C014000100140001401400018014069
:100B4000001C014008000140000401400246936877
:100B50000B400BB1012000E0002070470AB1016199
:100B600001E00B0403617047014800687047000012
:100B70001800002003480068034909780844014927
:100B800008607047180000202000002010B50848B9
:100B9000006840F0100006490860052000F070F879
:100BA0000F2000F007F800F02BF8002010BD000027
:100BB0000020024070B504460E4800784FF47A7168
:100BC000B1FBF0F00C490968B1FBF0F5284600F0E4
:100BD000C1FB08B1012070BD102C07D200222146B4
:100BE000501E00F00EF80548046001E00120F2E715
:100BF0000020F0E720000020140000201C0000204E
:100C000070472DE9F05F80460D461646002701F03B
:100C100063FD074639462A46334601F00700C0F116
:100C2000070ABAF1040F02D94FF0040A01E0C0F13B
:100C3000070AD14600F1040ABAF1070F02D24FF0B9
:100C4000000A01E0A0F1030AD4464FF0010A0AFAB3
:100C500009FAAAF1010A0AEA020A0AFA0CFA4FF0A2
:100C6000010B0BFA0CFBABF1010B0BEA030B4AEA8D
:100C70000B042146404601F037FDBDE8F09F00001F
:100C800000BF00F00702064B19684FF6FF0319403A
:100C9000044B0B4343EA0221014B196000BF70472C
:100CA0000CED00E00000FA0570B504460D460CB9E5
:100CB000012070BD5A48006800F00700A8420ED21B
:100CC0005748006820F00700284355490860084647
:100CD000006800F00700A84201D00120E9E7207871
:100CE00000F0020002281DD1207800F00400042842
:100CF00005D14C48406840F4E0604A49486020789B
:100D000000F00800082805D14648406840F46050CB
:100D1000444948604348406820F0F000A168084317
:100D200040494860207800F0010078B360680128ED
:100D300006D13C48006800F4003090B90120B8E7C3
:100D40006068022806D13748006800F0007040B99A
:100D50000120AEE73348006800F0020008B9012026
:100D6000A7E73048406820F00300616808432D4938
:100D70004860FFF7F9FE064609E0FFF7F5FE801B25
:100D800041F28831884202D9032092E707E02548E2
:100D9000406800F00C006168B0EB810FEDD1204895
:100DA000006800F00700A8420ED91D48006820F036
:100DB000070028431A4908600846006800F0070049
:100DC000A84201D0012074E7207800F00400042834
:100DD00007D11448406820F4E060E16808431149F5
:100DE0004860207800F00800082808D10D484068C5
:100DF00020F46050216940EAC1000A49486000F0CF
:100E000019F808494968C1F30311074A515CC84001
:100E10000649086006480068FFF7CCFE002048E756
:100E20000020024000100240833700081400002018
:100E30001C000020F0B585B00FF26C0C9CE8E010AF
:100E400001A8A0E8E0101CA52D6800950021002253
:100E5000002300240020194D696801F00C05F5B14C
:100E6000042D02D0082D19D101E0154819E001AD7B
:100E7000C1F38346AC5D01F4803555B10F4D6D680B
:100E8000C5F340451DF805200D4D6543B5FBF2F354
:100E900002E00C4D04FB05F3184602E000BF0848D1
:100EA00000BF00BF05B0F0BD020304050607080936
:100EB0000A0B0C0D0E0F1010010200000010024072
:100EC00000127A0000093D00F8B504460CB9012073
:100ED000F8BD207800F00100002878D0F84840687C
:100EE00000F00C0004280CD0F548406800F00C001D
:100EF000082811D1F248406800F48030B0F5803FF6
:100F00000AD1EF48006800F4003000285FD0606824
:100F100000285CD10120DBE700BF6068B0F5803FAE
:100F200006D1E748006840F48030E549086028E0D1
:100F3000606858B9E248006820F48030E0490860F1
:100F40000846006820F4802008601AE06068B0F568
:100F5000A02F0BD1DA48006840F48020D8490860FF
:100F60000846006840F4803008600AE0D448006811
:100F700020F48030D24908600846006820F48020C0
:100F8000086000BF606888B1FFF7EEFD054606E027
:100F9000FFF7EAFD401B642801D9032098E7C84801
:100FA000006800F400300028F2D010E0FFF7DCFD0C
:100FB000054606E0FFF7D8FD401B642801D9032051
:100FC00086E7BF48006800F400300028F2D120789E
:100FD00000F00200022857D1B948406800F00C0028
:100FE00050B1B748406800F00C00082818D1B44848
:100FF000406800F4803098B9B148006800F0020001
:1010000020B12069012801D0012061E7AC480068C7
:1010100020F0F800616940EAC100A949086033E0A6
:101020002069E8B10120A7490860FFF79DFD05464A
:1010300006E0FFF799FD401B022801D9032047E78E
:101040009F48006800F002000028F2D09C48006829
:1010500020F0F800616940EAC1009949086013E096
:10106000002098490860FFF77FFD054606E0FFF77E
:101070007BFD401B022801D9032029E79048006826
:1010800000F002000028F2D1207800F008000828C3
:101090002DD1A069B8B101208B490860FFF764FD2C
:1010A000054606E0FFF760FD401B022801D903203A
:1010B0000EE78348406A00F002000028F2D00120C9
:1010C00000F09AFF13E000207F490860FFF74CFD15
:1010D000054606E0FFF748FD401B022801D9032022
:1010E000F6E67748406A00F002000028F2D1207846
:1010F00000F00400042873D100277148C06900F093
:10110000805070B900BF6E48C06940F080506C4993
:10111000C8610846C06900F08050009000BF00BF61
:1011200001276A48006800F48070B0B96748006819
:1011300040F4807065490860FFF716FD054606E03B
:10114000FFF712FD401B642801D90320C0E65F4869
:10115000006800F480700028F2D000BFE068012829
:1011600006D15748006A40F001005549086227E05F
:10117000E06858B95248006A20F0010050490862FE
:101180000846006A20F00400086219E0E0680528BB
:101190000BD14B48006A40F00400494908620846F8
:1011A000006A40F0010008620AE04548006A20F049
:1011B0000100434908620846006A20F00400086202
:1011C00000BFE068A0B1FFF7CFFC054609E0FFF7DC
:1011D000CBFC401B41F28831884202D9032077E6DC
:1011E00022E03748006A00F002000028EFD012E049
:1011F000FFF7BAFC054608E0FFF7B6FC401B41F2DA
:101200008831884201D9032062E62D48006A00F047
:1012100002000028F0D1012F05D12948C06920F033
:1012200080502749C86100BFE069C8B324484068BE
:1012300000F00C00082860D0E069022848D10020A6
:1012400020490866FFF790FC054606E0FFF78CFC96
:10125000401B022801D903203AE61948006800F033
:1012600000700028F2D1206AB0F5803F07D1144801
:10127000406820F40030A168084311494860D4E96F
:10128000080108430E49496821F4741108430C49C8
:10129000486001200B490866FFF766FC054607E039
:1012A0003DE0FFF761FC401B022801D903200FE657
:1012B0000348006800F000700028F2D02FE0000022
:1012C0000010024000004242800442420070004090
:1012D000002014490866FFF747FC054606E0FFF7C3
:1012E00043FC401B022801D90320F1E50E480068A9
:1012F00000F000700028F2D111E0E069012800D16F
:10130000E6E50948466806F48031206A814204D146
:1013100006F47011606A814201D00120D8E50020F6
:10132000D6E500000000424200100240042808D127
:101330004FF0E021096941F004014FF0E022116112
:1013400007E04FF0E021096921F004014FF0E022AD
:101350001161704770B504462546681EB0F1807F64
:1013600001D301200FE0681E4FF0E02148610F21FA
:101370004FF0FF3001F0B8F900204FF0E021886114
:1013800007200861002070BD70477047014608685B
:10139000C06840F001000B68D8600868806800F001
:1013A0000702062A05D00868006840F001000B68B3
:1013B000186000207047704710B504462068006927
:1013C000C0F34000D8B12068C068C0F34000B0B19D
:1013D0006FF0020021680861012020772068806991
:1013E00000F0030018B12046FFF7E5FF05E02046B6
:1013F00000F0ADF8204600F04AF900202077206880
:101400000069C0F38000D8B12068C068C0F38000D4
:10141000B0B16FF0040021680861022020772068D5
:10142000806900F4407018B12046FFF7C4FF05E062
:10143000204600F08CF8204600F029F900202077A3
:1014400020680069C0F3C000D8B12068C068C0F34C
:10145000C000B0B16FF00800216808610420207757
:101460002068C06900F0030018B12046FFF7A3FF11
:1014700005E0204600F06BF8204600F008F9002057
:10148000207720680069C0F30010D8B12068C068D8
:10149000C0F30010B0B16FF010002168086108209F
:1014A00020772068C06900F4407018B12046FFF72B
:1014B00082FF05E0204600F04AF8204600F0E7F8F9
:1014C000002020772068006900F0010058B12068F2
:1014D000C06800F0010030B16FF0010021680861C0
:1014E000204600F053F920680069C0F3C01058B1DD
:1014F0002068C068C0F3C01030B16FF08000216870
:1015000008612046FFF740FF20680069C0F38010A3
:1015100058B12068C068C0F3801030B16FF040004F
:1015200021680861204600F03DF920680069C0F399
:10153000401058B12068C068C0F3401030B16FF05F
:101540002000216808612046FFF71FFF10BD70478B
:1015500070B504460D46164600BF94F83C000128BD
:1015600001D1022070BD012084F83C0000BF0220A0
:1015700084F83D0036B1042E1BD0082E31D00C2E3D
:101580005ED145E02946206800F006FF20688069AA
:1015900040F00800216888612068806920F004001C
:1015A0002168886120688069296908432168886109
:1015B00047E02946206800F027FF2068806940F452
:1015C0000060216888612068806920F4806021685B
:1015D000886120688069296940EA01202168886162
:1015E0002FE02946206800F04DFF2068C06940F0D8
:1015F00008002168C8612068C06920F004002168E3
:10160000C8612068C069296908432168C86118E079
:101610002946206800F072FF2068C06940F400602D
:101620002168C8612068C06920F480602168C861B1
:101630002068C069296940EA01202168C86100E08A
:1016400000BF00BF012084F83D0000BF002084F8E7
:101650003C0000BF00BF85E710B504460CB901206F
:1016600010BD94F83D0028B9002084F83C002046C5
:1016700000F00CF8022084F83D00211D206800F0E5
:101680002BFE012084F83D000020E9E770477047F9
:1016900070B504460E4601223146206800F06AFE0D
:1016A0000F492068884203D00E492068884201D142
:1016B000012000E0002028B12068406C40F4004088
:1016C000216848642068806800F00705062D05D071
:1016D0002068006840F0010021680860002070BDAB
:1016E000002C01400034014070B504460D4635B170
:1016F000042D0BD0082D10D00C2D1CD114E0206827
:10170000C06840F002002168C86015E02068C06829
:1017100040F004002168C8600EE02068C06840F016
:1017200008002168C86007E02068C06840F0100029
:101730002168C86000E000BF00BF01222946206880
:1017400000F018FE0F492068884203D00E49206837
:10175000884201D1012000E0002028B12068406CBF
:1017600040F40040216848642068806800F0070663
:10177000062E05D02068006840F00100216808604E
:10178000002070BD002C01400034014010B504461B
:101790000348844202D1022000F06EF910BD00001F
:1017A0006C050020704770472DE9F047044620681B
:1017B00005682068C668206847694FF00008C14680
:1017C00005F00F08B8F1000F0AD105F0200038B17C
:1017D00006F0200020B1204600F0E4FEBDE8F087CE
:1017E000B8F1000F6DD007F0010018B906F4907041
:1017F000002866D005F0010030B106F4807018B101
:10180000E06B40F00100E06305F0040030B107F048
:10181000010018B1E06B40F00200E06305F0020047
:1018200030B107F0010018B1E06B40F00400E06354
:1018300005F0080030B107F0010018B1E06B40F08E
:101840000800E063E06B68B305F0200028B106F003
:10185000200010B1204600F0A5FE20684069C0F3CA
:101860008019E06B00F0080010B9B9F1000F22D028
:10187000204600F077FE2068406900F04000B0B1DB
:101880002068406920F0400021684861606B50B1D9
:101890001748616B4863606BFEF7D0FE10B1606B58
:1018A000416B88470CE02046FFF77DFF08E02046AB
:1018B000FFF779FF04E02046FFF775FF0020E063A3
:1018C0008CE705F0800030B106F0800018B12046AA
:1018D00000F0BBFE82E705F0400030B106F04000AA
:1018E00018B1204600F04EFE78E700BF76E7000012
:1018F0005125000810B5034693F83A0020282FD14F
:1019000001B10AB9012010BD00BF93F838000128C9
:1019100001D10220F7E7012083F8380000BF996267
:101920009A85DA850020D863222083F83A0000BF28
:10193000002083F8380000BF1868C06840F4807049
:101940001C68E0601868406940F001001C68606134
:101950001868C06840F020001C68E0600020D2E7F2
:101960000220D0E710B5044627492068884222D1DA
:10197000012226492648FFF7BDFFC8B92348007851
:101980000A280AD100202349234A12888854224970
:1019900008800120214908700DE01C4801781E488C
:1019A00002880088401C1C4B18801A48815402E0B1
:1019B0001BA0FEF731FC1E492068884222D101227B
:1019C00012491C48FFF796FFC8B9104800780A284A
:1019D0000AD100200F49184A1288885416490880F5
:1019E0000120164908700DE0084801781248028865
:1019F0000088401C104B18800648815402E008A063
:101A0000FEF70AFC10BD0000004400400A00002060
:101A1000EC0000206C0100200C00002010000020D1
:101A200072656365697665206661696C640A0000A9
:101A3000004800402C0100200E0000201100002072
:101A4000704700BFFEE7000001464906084A926958
:101A500042F00102064B9A61064A526822F0E062A7
:101A6000044B5A601A4652680A435A607047000095
:101A7000001002400000014070B5044634B9002255
:101A80004FF400410E48FFF769F818E0012C05D12A
:101A90000122D1030A48FFF761F810E0022C0ED1B1
:101AA000A1030748FFF752F808B9012000E0002021
:101AB00005462A464FF400410148FFF74FF870BD34
:101AC000000C014000B585B000BF1048806940F0AF
:101AD00008000E4988610846806900F008000090FF
:101AE00000BF00BF4FF4004001900120029003901E
:101AF0000320049001A90648FEF788FE00224FF457
:101B000000410348FFF72AF805B000BD001002406D
:101B1000000C014000BFFEE770B506460C461546B6
:101B2000002E07DD1C480660002281141B48FFF7C9
:101B300015F807E070421849086001228914174817
:101B4000FFF70CF8002C08DD1348001D046000228C
:101B500041141248FFF702F808E060420E49091DDF
:101B60000860012249140D48FEF7F8FF002D09DD39
:101B700009480830056000224FF480410748FEF70D
:101B8000EDFF08E068420449083108600122910332
:101B90000248FEF7E3FF70BD342C0140000C014009
:101BA00000B585B000BF2248806940F4006020493C
:101BB00088610846806900F40060009000BF00BFA3
:101BC00000BF0846806940F00400886108468069CB
:101BD00000F00400009000BF00BF00BF084680690D
:101BE00040F0080088610846806900F00800009015
:101BF00000BF00BF4FF4E06001900220029003207C
:101C0000049001A90B48FEF701FE4FF4E04001905B
:101C1000012002900320049001A90748FEF7F6FD79
:101C2000002141F61F4000F0F3FA05B000BD0000AE
:101C30000010024000080140000C0140704770B5E0
:101C4000002415E004F1B001C8B200F05FF90120F2
:101C500000F05CF9102000F059F9002504E00020A4
:101C600000F08EF9681CC5B2842DF8DB601CC4B28C
:101C7000082CE7DB70BD000000B585B000BF4E4802
:101C8000806940F010004C4988610846806900F086
:101C90001000009000BF00BF00BF0846806940F000
:101CA000040088610846806900F00400009000BFCD
:101CB00000BF4FF460400190012002900320049087
:101CC00001A93E48FEF7A2FD0120019002900320E9
:101CD000049001A93A48FEF799FD0122D103374843
:101CE000FEF73CFF00224FF400513448FEF736FF68
:101CF000322000F021FD012251033048FEF72EFF73
:101D0000AE2000F003F9002000F000F9102000F0F0
:101D1000FDF8402000F0FAF8812000F0F7F8CF201D
:101D200000F0F4F8A12000F0F1F8C82000F0EEF87F
:101D3000A62000F0EBF8A82000F0E8F83F2000F023
:101D4000E5F8D32000F0E2F8002000F0DFF8D5201D
:101D500000F0DCF8802000F0D9F8D92000F0D6F8A7
:101D6000F12000F0D3F8DA2000F0D0F8122000F0D3
:101D7000CDF8DB2000F0CAF8402000F0C7F82020A2
:101D800000F0C4F8022000F0C1F88D2000F0BEF889
:101D9000142000F0BBF8A42000F0B8F8A62000F052
:101DA000B5F8AF2000F0B2F8FFF749FF0021084670
:101DB00000F07EF805B000BD0010024000100140A8
:101DC000000801402DE9F0470446884615464FF0CB
:101DD00000090026002720E0E85D203800F0FF0918
:101DE0007E2C04DD002408F1010000F0FF084146CC
:101DF000204600F05DF8002609E009EB4901094A98
:101E000002EB4101885D00F0BBF8701CC6B2062EE3
:101E1000F3DBA01DC4B2781CC7B2E85D0028DBD19B
:101E2000BDE8F087002900082DE9F04706460F4677
:101E3000904600250024A14631E018F8090020381A
:101E4000C5B2782E02DD0026781CC7B2394630466E
:101E500000F02EF8002407E004EB0511134A505C53
:101E600000F08EF8601CC4B2082CF5DB781CC1B2FF
:101E7000304600F01DF8002408E004EB051108319D
:101E80000A4A505C00F07CF8601CC4B2082CF4DBF9
:101E900006F10800C6B209F1010000F0FF0918F8C8
:101EA00009000028C9D1BDE8F0870000532E0008C2
:101EB00070B504460D4605F1B001C8B200F026F831
:101EC000102141EA141000F021F804F00F0000F096
:101ED0001DF870BD70B50026002411E021461020C9
:101EE000FFF7E6FF0E2507E03146761C064A505CF8
:101EF00000F046F8681CC5B2762DF5DB601CC4B254
:101F0000082CEBDB70BD00004334000870B50446BC
:101F10000825002201211848FEF720FE002229038F
:101F20001648FEF71BFE012000F044FC1EE004F002
:101F3000800028B1012291031048FEF70FFE05E052
:101F400000224FF480410D48FEF708FE0122D10324
:101F50000A48FEF703FE012000F02CFC00224FF49B
:101F600000410648FEF7FAFD6006040E281EA5F1A2
:101F70000101CDB2DBD170BD00080140001001406D
:101F800070B504460825012211461848FEF7E6FD03
:101F9000002229031648FEF7E1FD012000F00AFCAB
:101FA0001EE004F0800028B1012291031048FEF7E2
:101FB000D5FD05E000224FF480410D48FEF7CEFD2F
:101FC0000122D1030A48FEF7C9FD012000F0F2FB0F
:101FD00000224FF400410648FEF7C0FD6006040EE3
:101FE000281EA5F10101CDB2DBD170BD0008014072
:101FF000001001407047000008B508490968C90889
:102000004FF47A72B1FBF2F14143009100BF00BF7F
:1020100000994A1E00920029F9D108BD1400002041
:1020200010B50446062C58D2DFE804F057031323FA
:10203000334501212A48FEF789FD48B90A2000F0FE
:102040007BFB01212648FEF781FD08B9012010BD68
:1020500043E002212248FEF779FD48B90A2000F04A
:102060006BFB02211E48FEF771FD08B90120EEE767
:1020700033E004211A48FEF769FD48B90A2000F050
:102080005BFB04211648FEF761FD08B90120DEE77D
:1020900023E04FF400611348FEF758FD50B90A20C1
:1020A00000F04AFB4FF400610E48FEF74FFD08B9FF
:1020B0000120CCE711E04FF480510A48FEF746FDBD
:1020C00050B90A2000F038FB4FF480510548FEF764
:1020D0003DFD08B90120BAE700BF00BF0020B6E708
:1020E000000C01400008014010B5044634B1012C39
:1020F0000CD0022C12D0032C20D117E01021114853
:10210000FEF724FD08B9012010BD17E080210D481D
:10211000FEF71CFD08B90120F6E70FE04021094851
:10212000FEF714FD08B90120EEE707E0202105487D
:10213000FEF70CFD08B90120E6E700BF00BF002054
:10214000E2E7000000080140704710B5FEF712FDFD
:1021500010BD00B58FB0282105A8FEF77DF9142128
:102160006846FEF779F901200590000406900020EA
:1021700007900120099002200C90C1030D914FF4AB
:10218000E0110E9105A8FEF79FFE08B100BFFEE723
:102190000F20009002200190002002904FF48060F8
:1021A00003900020049002216846FEF77DFD08B1EF
:1021B00000BFFEE70FB000BD1148006840F001000D
:1021C0000F490860084640680E4908400C494860BD
:1021D000084600680C49084009490860084600683C
:1021E00020F4802008600846406820F4FE00486023
:1021F0004FF41F008860C80304490860704700005E
:10220000001002400000FFF8FFFFF6FE08ED00E0BE
:1022100030B597B005460C46194807900894002140
:1022200009910A950B9107A8FFF716FA07A8FFF77F
:10223000ADF87020009000200190029000226946C5
:1022400007A8FFF785F90422694607A8FFF780F978
:102250000822694607A8FFF77BF9002107A8FFF7C6
:1022600017FA042107A8FFF713FA082107A8FFF7B8
:102270000FFA002107A8FFF737FA17B030BD0000AA
:10228000002C01404FF0804000694FF08040006911
:1022900020F001004FF080410861704710B50648FA
:1022A000FFF78AF8054800680448006820F001003C
:1022B0000249086010BD00006C05002010040040B9
:1022C000044800680348006820F0010001490860E4
:1022D000704700001008004010B50268204B98427B
:1022E0000ED0204B98420BD0B0F1804F08D01E4B3F
:1022F000984205D01D4B984202D01D4B984203D105
:1023000022F070024B681A43154B98420ED0154BC1
:1023100098420BD0B0F1804F08D0134B984205D0B3
:10232000124B984202D0124B984203D122F44072D1
:10233000CB681A4322F080034C6943EA040202602E
:102340008B68C3620B688362054B984202D0054BD1
:10235000984201D10B6903630123436110BD000062
:10236000002C0140003401400004004000080040FF
:10237000000C004030B501F01F05012404FA05F3FC
:10238000046A9C430462046A01F01F0502FA05F521
:102390002C43046230BD000030B5056A25F001050C
:1023A0000562026A4368846924F0700424F003041F
:1023B0000D682C4322F002028D682A43104DA8427A
:1023C00000D103E00F4DA84206D100BF22F0080261
:1023D000CD682A4322F00402094DA84202D0094DDB
:1023E000A84207D123F4807323F400734D692B4373
:1023F0008D692B43436084614D684563026230BD43
:10240000002C01400034014030B5056A25F010056C
:102410000562026A4368846924F4E04424F4407449
:102420000D6844EA052422F020028D6842EA051274
:10243000124DA84200D103E0114DA84207D100BFC0
:1024400022F08002CD6842EA051222F040020B4DD4
:10245000A84202D00A4DA84209D123F4806323F494
:1024600000634D6943EA85038D6943EA8503436050
:1024700084614D688563026230BD0000002C01401C
:102480000034014030B5056A25F480750562026AA2
:102490004368C46924F0700424F003040D682C43DD
:1024A00022F400728D6842EA0522124DA84200D142
:1024B00003E0114DA84207D100BF22F40062CD68AD
:1024C00042EA052222F480620A4DA84202D00A4D57
:1024D000A84209D123F4805323F400534D6943EA01
:1024E00005138D6943EA05134360C4614D68C563F4
:1024F000026230BD002C01400034014030B5056A55
:1025000025F480550562036A4468C26922F4E042FA
:1025100022F440720D6842EA052223F400538D68CC
:1025200043EA0533084DA84202D0084DA84204D121
:1025300024F480444D6944EA85144460C2614D68C6
:102540000564036230BD0000002C014000340140EE
:1025500070B505466C6A0020E085E0842046FFF7F0
:1025600022F970BD0168C96821F490710268D160D8
:102570000168496921F0010102685161202180F858
:102580003A10704710B504462068C06820F040003B
:102590002168C860202084F839002046FFF750FAEF
:1025A000002010BD70B5044694F83A0022284AD1A4
:1025B000A068B0F5805F13D1A56A206940B9206892
:1025C0004068C0F308002880A06A801CA06219E05F
:1025D00020684068C0B22880A06A401CA06211E058
:1025E000206938B920684068C1B2A26A501CA06254
:1025F000117007E02068406800F07F01A26A501C5B
:10260000A0621170E08D401E80B2E085C8B92068DC
:10261000C06820F020002168C8602068C06820F4ED
:1026200080702168C8602068406920F0010021683E
:102630004861202084F83A002046FFF793F90020F3
:1026400070BD0020FCE70220FAE7014691F839004E
:1026500021282CD18868B0F5805F0FD10A6A1088D4
:10266000C0F308000B685860086918B9086A801C34
:10267000086209E0086A401C086205E00B6A581C01
:10268000086218780B685860C88C401E80B2C884F5
:1026900058B90868C06820F080000B68D8600868E6
:1026A000C06840F040000B68D860002070470220EE
:1026B000FCE7000010B50248FFF776F810BD0000F7
:1026C000EC00002010B50248FFF76EF810BD0000C6
:1026D0002C01002000BFFEE702480068C0F3022082
:1026E000704700000CED00E010B5002804DB0A077D
:1026F000130E054A135406E00A07140E034A00F0AD
:102700000F031B1FD45410BD00E400E018ED00E0DF
:1027100030380A2801D2012070470020704700BFDE
:102720007047000010B504460420FEF7FFFD014885
:10273000046010BD0000002030B50446002504E010
:102740004FF47A7000F004F86D1CA542F8D330BD48
:1027500070B5034600224FF0E02675690D4E3668CD
:1027600003FB06F44FF0E026B16910E04FF0E026DD
:10277000B06988420BD0884202D20E1A324402E07D
:102780002E1A0E4432440146A24200D300E0EDE787
:1027900000BF70BD0000002000BF054A126802F0B3
:1027A0004002002AF9D0C2B2014B1B1D1A607047CB
:1027B0000044004000E000BF011EA0F10100FAD17A
:1027C0007047000088B04FF47A7400BFFEF7DEF95E
:1027D000FFF7BFFC4820FFF7A5FF0120FFF734F902
:1027E000FFF770F9FFF748FAFFF774FB6010FFF787
:1027F000A3FFFFF724FAFFF7D3F934A20021142036
:10280000FFF712FB60E00020FFF76EFC8DF81C0064
:102810000120FFF769FC8DF81D000220FFF764FC22
:102820008DF81E000320FFF75FFC8DF81F000120CC
:10283000FFF7F6FB012802D1002425462646022098
:10284000FFF7EEFB012803D10024234D4FF46176FE
:102850000320FFF7E5FB012803D100241F4D40F2C0
:102860006C760420FFF7DCFB012803D100241B4D0C
:102870004FF4617632B229B22046FFF74DF92B466C
:10288000224617A103A80096FDF7D2FC03AA052152
:102890000A20FFF7C9FA9DF81F009DF81E10CDE928
:1028A00000109DF81D309DF81C2012A103A8FDF713
:1028B000BFFC03AA02210020FFF784FA0220FFF7E1
:1028C000DBF86420FFF738FF9DE700005465737460
:1028D000204D6F746F72000030F8FFFF18FCFFFF8F
:1028E00050574D3A202535642C2535642C25356408
:1028F0000000000025642025642025642025640054
:102900000000000000000000002F00000000070091
:10291000070000147F147F1400242A7F2A1200620B
:1029200064081323003649552250000005030000B7
:1029300000001C224100000041221C000014083E3F
:1029400008140008083E0808000000A06000000805
:102950000808080800006060000000201008040259
:10296000003E5149453E0000427F40000042615117
:102970004946002141454B31001814127F100027B1
:1029800045454539003C4A49493000017109050374
:1029900000364949493600064949291E00003636A5
:1029A0000000000056360000000814224100001408
:1029B00014141414000041221408000201510906E5
:1029C00000324959513E007C1211127C007F494966
:1029D0004936003E41414122007F4141221C007F97
:1029E00049494941007F09090901003E4149497AA5
:1029F000007F0808087F0000417F4100002040411F
:102A00003F01007F08142241007F40404040007F8A
:102A1000020C027F007F0408107F003E4141413ECE
:102A2000007F09090906003E4151215E007F091916
:102A300029460046494949310001017F0101003F13
:102A40004040403F001F2040201F003F4038403F93
:102A500000631408146300070870080700615149F7
:102A6000454300007F41410000552A552A5500008A
:102A700041417F0000040201020400404040404008
:102A8000000001020400002054545478007F4844A0
:102A9000443800384444442000384444487F0038D7
:102AA0005454541800087E0901020018A4A4A47C00
:102AB000007F080404780000447D400000408084CA
:102AC0007D00007F102844000000417F4000007C12
:102AD00004180478007C080404780038444444381E
:102AE00000FC242424180018242418FC007C08046A
:102AF000040800485454542000043F444020003C43
:102B00004040207C001C2040201C003C4030403CC9
:102B1000004428102844001CA0A0A07C0044645459
:102B20004C44141414141414B1B1BEA9B5E7D7D38E
:102B3000BFC6BCBCD6B0D2B5D1A7D4BAC1FAC7F112
:102B4000D6C7C4DCBBFAC6F7C8CBD2A3BFD8C6F77A
:102B5000BDD3CAD5B7A2CBCDB0B4BCFCA3BA0020BC
:102B6000202020FE000000FE8040201000101008F1
:102B7000047F0000003F40404070000808E828281B
:102B80002A2C282828E80808000020130A42427E40
:102B900002020A1320000000F090909090FE9090A6
:102BA0009090F00000000F040404043F44444444A7
:102BB000477000808282828282C2A2928A8682804C
:102BC000000000000040407F0000000000000040C6
:102BD0004848F8444420C41800FE000000080403DC
:102BE0007F0204020202027F0101001010FE1000A9
:102BF000909090FE909010000042427F0140402350
:102C00001408142340400004FC2424FC0400FC04A9
:102C10000404FC0000101F11097F08403302020267
:102C200013600010608000FE000000FE0080700055
:102C300000404043407F4040407F42414040007060
:102C4000109294909294909894121070000404043E
:102C50000444447E06050404040400FC04649C004F
:102C60001848484A4C484818007F08080740221274
:102C70000E02023E42620020202020A07E20E0249E
:102C80002820A020004020100C2320103F44424167
:102C900040700000FC444444C24200FC0444B40CB4
:102CA00000101F1010080F08007F0010100F0028E0
:102CB000A6643C64A420FC848484FC000001007EA3
:102CC0002A2A2A2A2A2A2A7E000000109894929002
:102CD0009830003E4848447400007F0A0A4A7F004A
:102CE000003F44444271001090FE901000FC040428
:102CF00004FC00000002017F0041300F0000003F93
:102D0000407000809E9292929EC09E92B2D29E800F
:102D100000047C4A4A49780078494A4A7C04000009
:102D200000000000807E8000000000000040402085
:102D3000100C0300030C10204040004042CC0084E3
:102D40006C544CD444524E020040201F20425A5230
:102D5000525F52525A42001010FE100098482A0C3E
:102D6000082848980042427F01004042427E424289
:102D7000424000809E9292929EC09E92B2D29E80CD
:102D800000047C4A4A49780078494A4A7C04001089
:102D900010FE10504858EA4C685848400042427FA4
:102DA00001424A2E13122A2642020000F80000FEB9
:102DB000004020DE1010F01000000702017F0040EC
:102DC0002017081621400000302C20A0702E202053
:102DD0002024282000100844424127291129254396
:102DE0004040008084980080929490F0909492806B
:102DF0000040201F204050484641424458400010A7
:102E000010FE1000B88888EA8C8888B80042427F9B
:102E100001004044271808142340002050CE4800E9
:102E2000C8B820A8FEA8F8200002023F5228102FA0
:102E3000204A7F4A4A4800000000808000000000CD
:102E40000000000000000000191900000000000050
:102E50000000000000000000000000000000000072
:102E6000000000000000F800000000000000333007
:102E700000000000100C06100C060000000000000E
:102E800000000040C07840C0784000043F04043F88
:102E9000040400007088FC08300000001820FF21A6
:102EA0001E0000F008F000E018000000211C031EC6
:102EB000211E0000F00888700000001E2123241944
:102EC00027211010160E0000000000000000000076
:102ED000000000000000E0180402000000000718D5
:102EE00020400000020418E0000000004020180705
:102EF000000000404080F0804040000202010F01CD
:102F0000020200000000F0000000000101011F01AA
:102F1000010100000000000000000080B07000000F
:102F2000000000000000000000000000010101019D
:102F3000010101000000000000000000303000002E
:102F40000000000000000080601804006018060106
:102F500000000000E010080810E000000F10202022
:102F6000100F00001010F8000000000020203F208B
:102F70002000000070080808887000003028242213
:102F800021300000300888884830000018202020B8
:102F9000110E000000C02010F800000007042424D7
:102FA0003F240000F8088888080800001921202024
:102FB000110E0000E0108888180000000F1120207A
:102FC000110E0000380808C83808000000003F0053
:102FD0000000000070880808887000001C22212171
:102FE000221C0000E010080810E00000003122223E
:102FF000110F00000000C0C00000000000003030D1
:103000000000000000008000000000000080600060
:1030100000000000008040201008000001020408A9
:10302000102000404040404040400004040404049C
:103030000404000008102040800000002010080454
:10304000020100007048080808F000000000303657
:10305000010000C030C828E810E00007182724232A
:10306000140B000000C038E0000000203C230202E6
:1030700027382008F8888888700000203F2020200A
:10308000110E00C03008080808380007182020205A
:1030900010080008F808080810E000203F20202051
:1030A000100F0008F88888E8081000203F2020232F
:1030B00020180008F88888E8081000203F20000346
:1030C000000000C03008080838000007182020223F
:1030D0001E020008F808000008F808203F2101013E
:1030E000213F20000808F8080800000020203F20A9
:1030F00020000000000808F8080800C08080807FD9
:1031000000000008F888C028180800203F20012689
:1031100038200008F8080000000000203F20202090
:1031200020300008F8F800F8F80800203F003F00C1
:103130003F200008F830C00008F808203F200007B2
:10314000183F00E01008080810E0000F10202020B1
:10315000100F0008F808080808F000203F210101BE
:10316000010000E01008080810E0000F18242438BF
:10317000504F0008F8888888887000203F2000039E
:103180000C30200070880808083800003820212101
:10319000221C00180808F8080818000000203F202A
:1031A00000000008F808000008F808001F20202090
:1031B000201F000878880000C83808000007380E73
:1031C000010000F80800F80008F800033C070007B9
:1031D0003C0300081868808068180820302C03031E
:1031E0002C30200838C800C83808000000203F20D4
:1031F00000000010080808C83808002038262120E0
:10320000201800000000FE020202000000007F40C3
:10321000404000000C30C00000000000000001062B
:1032200038C00000020202FE000000004040407F63
:103230000000000000040202020400000000000080
:1032400000000000000000000000008080808080FE
:1032500080808000020204000000000000000000E6
:1032600000000000008080808000000019242222DD
:10327000223F2008F8008080000000003F1120203D
:10328000110E000000008080800000000E11202040
:10329000201100000000808088F800000E1120201E
:1032A000103F200000808080800000001F2222222A
:1032B000221300008080F0888888180020203F209A
:1032C0002000000000808080808000006B94949437
:1032D00093600008F8008080800000203F210000FB
:1032E000203F2000809898000000000020203F2010
:1032F000200000000000809898000000C0808080BE
:103300007F000008F8000080808000203F24022D0C
:10331000302000000808F8000000000020203F20B6
:103320002000008080808080808000203F20003F3F
:1033300020003F8080008080800000203F2100002E
:10334000203F200000808080800000001F2020207F
:10335000201F00808000808000000080FFA12020CE
:10336000110E000000008080808000000E112020DF
:10337000A0FF80808080008080800020203F21206E
:10338000000100000080808080800000332424241D
:10339000241900008080E0808000000000001F20D1
:1033A0002000008080000000808000001F2020207E
:1033B000103F20808080000080808000010E300857
:1033C00006010080800080008080800F300C030C9C
:1033D000300F0000808000808080000020312E0EA1
:1033E000312000808080000080808080818E701875
:1033F00006010000808080808080000021302C2227
:1034000021300000000000807C020200000000006B
:103410003F404000000000FF00000000000000FFEF
:103420000000000002027C800000000040403F00DD
:103430000000000006010102020404000000000078
:10344000000000000000000000000000000000007C
:10345000000000000000000000000000000000006C
:10346000000000000000000000000000003F3F3F9F
:103470003F3FC0C0C0C0C00000000000000000000E
:10348000000000000000000000000000000000003C
:10349000000000000000000000000000000000002C
:1034A0000000000000000000000000000080C0E0FC
:1034B000E0F0F0F0F00000000000F0F0F0F0F0F0CC
:1034C000F0F0F0F0F0F0F0F0F0F0F0F0F0F0F0F0FC
:1034D000F0F0F0F0F0F0F0F0F0F007070707070069
:1034E000000000000000000000E0F0F0F00000002C
:1034F000000060E0E0C0000000000000C0E0E0E08C
:10350000606060607070303000E0E0E0E02060E01B
:10351000E0E040F0FEFFFFFFFFFFFFFFFF000000C5
:103520000000FFFFFFFFFFFFFFFFFF1F1F1F1F1F09
:103530001F1F1F1F1F1F1F1F1F1F1F1F1F1FFFFFDB
:10354000FFFFFEFEFEFEFE0000000606060606C6A3
:10355000FEFFFF1F070606FEFEFE06060686C6667F
:1035600006000000FFFFFFFF3030F0F0F0F03030D9
:1035700000FFFFFFFF4078FFFFFF80FFFFFFFFFF1F
:10358000FFFFFFFFFF0000000000FFFFFFFFFFFF46
:10359000FFFFFF000000000000000000000000002E
:1035A000000000000000FFFFFFFFFFFFFFFFFF0024
:1035B00000000000C0F0FEFF3F0780C0C06070FF49
:1035C000FFFF0E070301000000000000FFFFFFFFE8
:1035D0000000FFFFFFFF000000FFFFFFFF0000FFF4
:1035E000FFFFFFFFFFFFFFFFFFFFFFFFFF000000E8
:1035F0000000FFFFFFFFFFFFFFFFFF0000000000D4
:103600000000000000000000000000000080FFFF3C
:10361000FFFFFFFFFFFFFF000000040F0F07030085
:1036200000030101000000070F0F0E0C0C0C0C0C26
:103630000C00000407070707060203030303030344
:1036400000070F0F07030303030100FFFFFFFFFF46
:10365000FFFFFFFFFF0000000000FFFFFFFFFFFF75
:10366000FFFFFFFFFFFFFFFFFFFFFFFFFFFFFFFF6A
:10367000FFFFFFFFFFFFFFFFFFFFFFFFFFFFFF0059
:103680000000424242FEFEFFE743434100061E3E69
:103690003C3000FFFFFFFF000000004040FFFFFF45
:1036A000FF4000080808080808FFFFFFFF08080897
:1036B0000808087FFFFFFFFFFFFFFFFFFFC0C0C03C
:1036C000C0C0C1C1C1C1C1C1C1C1C1C1C1C1C1C1EC
:1036D000C1C1C1C1C1C1C1C1010101010101FFFFDE
:1036E000FFFFFFFFFFFFFF000000FFFF00FFFFFFE6
:1036F00000FEFF0000030F1F1E1800FFFFFFFF80EA
:103700008000008080FFFFFFFF400000021A7AFA6D
:10371000F2E38383C3F2FE7E3E0E0000070F1F3FDD
:103720003F7F7F7F7F7F7F7F7F7F7F7F7F7F7F7FE9
:103730007F7F7F7F7F7F7F7F7F7F7F7F7F7F7F7F99
:103740000000000000007F7F7F3F3F1F0F07000049
:1037500000007F7F007F7F7F003F7F00000301012B
:103760000101017F7F7F7F0000000040607F7F7F3D
:103770003F000000406070787D3F1F1F3F7F7870E2
:103780006040000000000000000000010203040689
:1037900007080900000000010203040400000800FB
:1037A000000000000000020001000010CC370008FB
:1037B00000000020240000006C010008F037000821
:1037C00024000020EC0B000088010008000000002D
:1037D00000000000000000000000000000000000E9
:1037E0000024F400000000001000000001000000B0
:0400000508000131BD
:00000001FF
