:020000040800F2
:10000000B80C0020F1010008C5370008CD35000804
:100010009D360008C11E0008B9420008000000001B
:100020000000000000000000000000000D3B000880
:10003000C51E000800000000E13A00080F3B000860
:100040000B0200080B0200080B0200080B0200085C
:100050000B0200080B0200080B0200080B0200084C
:100060000B0200080B0200080B0200080B0200083C
:100070000B0200080B0200080B0200080B0200082C
:100080000B0200080B0200080B0200080B0200081C
:100090000B0200080B0200080B020008C71E000834
:1000A0000B0200080B0200080B0200080B020008FC
:1000B0005D3C0008753C0008993C00080B020008F4
:1000C0000B0200080B0200080B0200080B020008DC
:1000D0000B0200080B02000899420008A942000820
:1000E0000B0200080B0200080B0200080B020008BC
:1000F0000B0200080B0200080B0200080B020008AC
:100100000B0200080B0200080B0200080B0200089B
:100110000B0200080B0200080B0200080B0200088B
:100120000B0200080B0200080B0200080B0200087B
:1001300000F002F800F04DF80AA090E8000C8244AC
:100140008344AAF10107DA4501D100F042F8AFF289
:10015000090EBAE80F0013F0010F18BFFB1A43F0A5
:10016000010318470C5C00002C5C0000103A24BF0F
:1001700078C878C1FAD8520724BF30C830C144BF0C
:1001800004680C607047000000230024002500264E
:10019000103A28BF78C1FBD8520728BF30C148BFEA
:1001A0000B607047662904F0C385002070471FB5B7
:1001B00000F0E2FB04000020002104F059FC401C88
:1001C00060600020002104F03DFCE0601FBD10B520
:1001D00010BD00F001FD1146FFF7E9FF04F00CFA35
:1001E00000F0A4FF03B4FFF7F2FF03BC04F01EF914
:1001F0000948804709480047FEE7FEE7FEE7FEE7BB
:10020000FEE7FEE7FEE7FEE7FEE7FEE704480549F6
:10021000054A064B704700007D3B0008310100088D
:10022000B8060020B80C0020B8080020B80800204C
:10023000704700000FB4044910B503AA029800F0FB
:1002400037FB10BC5DF814FB300000200FB41CB568
:10025000074B06AA7B4469460090059800F00FFB07
:100260000020694600F01EFB1CBC5DF814FB00007A
:100270004D0600002DE9F05F894604464FF0000A64
:10028000DFF824B1FB44C0F820A02046E16888478D
:1002900000287DD0252806D0D4E901219047206A86
:1002A000401C2062F1E700255F462046E168884750
:1002B0002028064607DB312E05D2B81910F8200C8D
:1002C00008B10543F1E7A80701D525F00405C4F8F6
:1002D0001CA00027C4F818A02A2E09D0304604F02C
:1002E0009EF838B304EB8708303EC8F8186019E070
:1002F00059F8041B204604EB87029161E1688847A6
:10030000012F064618D1E069002820DA25F02005E3
:100310001DE0D8F8180000EB800006EB40003038F4
:10032000C8F818002046E1688847064604F077F8C8
:100330000028EED1012F0AD02E2E08D12046E168E8
:1003400088477F1C0646022F45F02005C4DBA069C4
:10035000002803DA404245F00105A061E80701D01A
:1003600025F01005A6B1A6F14100192802D82036C3
:1003700045F400654A463146204625604D46FFF764
:1003800011FF60B1012807D0ED1D25F0070000E046
:1003900007E000F1080978E705F1040975E7304640
:1003A0007AE7206ABDE8F09F435A000010B5431C6D
:1003B00002E010F8011B71B18107FAD14FF0013250
:1003C00002C88C1A8C4314EAC211F9D0C01A0A066A
:1003D00003D0C01E10BDC01A10BD0A0401D0801E7B
:1003E00010BD0902FCD0401E10BD4FF0000200B548
:1003F000134694469646203922BFA0E80C50A0E848
:100400000C50B1F12001BFF4F7AF090728BFA0E8F5
:100410000C5048BF0CC05DF804EB890028BF40F8C1
:10042000042B08BF704748BF20F8022B11F0804F03
:1004300018BF00F8012B704770477047704770472E
:1004400010B500F09DFA006810BD10B5044600F02C
:1004500097FA046010BD70472DE9FF4F0C461E4609
:100460004FF0FF378BB0D2E90001DDF860800A90D1
:100470008A46C1F30A5505B93D46002108464FF0AA
:100480000000BAF1000F00F4400005DA00EB800034
:100490004FF4400101EA50004FEA9059B9F1010FC1
:1004A00000DDB9460A9850EA4A000ED044F61050D2
:1004B000A5F2FF3545432F14B8F1000F1ED0754249
:1004C000291E1EDDC9F100021CE0B8F1010F4FF03A
:1004D000000001D0302103E0F24305E02154401C2C
:1004E000B042FBDB30460022002121540B99C1F8B9
:1004F0000880C1E900200FB0BDE8F08FBD1B6D1C66
:10050000DEE74A4600DA694206A800F0EBFA06ABDD
:1005100093E8070003AB83E8070050460A9901F00F
:100520009AF88DE80700A0F500501F380090039856
:10053000002D0ADD42F21F014A460844002303A9A8
:100540000390684601F046FB09E0A0F500504A46DA
:100550001F38002303A90390684601F065FB8DE86E
:1005600007000004000C03D04FF0FF30410800E00A
:100570001046B8F1000F03D00022009215461EE08D
:10058000751E05D400F000FA303262556D1EF9D5A3
:10059000B3460122084302D000227F1C04E02078E9
:1005A000302801D100227F1E002A099784D01DE047
:1005B000112D07DA00F0E8F9303262556D1C50EA6F
:1005C0000102F5D1084302D00098C8B10EE0002125
:1005D000681E05E0235C625C63542254401E491C83
:1005E0008142F7DBAB46A81B401E0990002004F8AF
:1005F0000B000B98099AC0F80880C0E9002B7AE735
:1006000011264FF0000857E72DE9F04F88460446C1
:10061000D21D22F0070191B0D1E90001CDE90A0114
:1006200003F04CFE02460B98C00F01D02D2007E0CE
:100630002068810701D52B2002E0202101EAC000BB
:10064000032A099001D0072A05DB034641462046CC
:1006500000F0E8F90BE12078800601D5E06900E0C0
:100660000620B8F1650F814606D0B8F1660F18D0A4
:10067000B8F1670F70D131E00020B9F1110F00908F
:1006800001DB112301E009F101030AAA01A90CA869
:10069000FFF7E2FEDDE90C70002609F10105834653
:1006A00047E001204B4600904FF000470AAA01A9FD
:1006B0000CA8FFF7D1FEDDE90DB00C995D460026D0
:1006C00010B909F101000D18B9EB050003D4C0F110
:1006D000FF3609F10105A5EB09002BE0B9F1010F87
:1006E00001DA4FF001090020B9F1110F00904846DE
:1006F00001DD112300E003460AAA01A90CA8FFF7B7
:10070000ABFEDDE90C704D460026834620780007DD
:100710000AD4AB4500DA5D4601A8012D04DD41197C
:1007200011F8011C302907D04F4502DA17F1040FE8
:1007300004DA012082460FE06D1EEEE7002F02DC96
:10074000ED1B3E4403E0781CA84200DD7D1CB81B75
:1007500000F1010A4FF000472078000703D4AA45B2
:1007600001DB4FF0FF3A0021B7F1004F0DF14308D4
:100770008DF8431024D002202B23002F01DA7F4272
:100780002D230A21021EA0F1010000DC5FB197FBBE
:10079000F1FC97FBF1F201FB1C7C17460CF1300CCD
:1007A00008F801CDEEE7A8F10100037021880905E2
:1007B00001D5452100E06521A0F1010800F8011CE8
:1007C00009980FA9A1EB0807FF1D00B101204119ED
:1007D00001EBEA70A1693844081A401EA061207834
:1007E000C00602D42046AFF30080099828B1D4E9AE
:1007F00001219047206A401C20622078C00622D543
:100800002046AFF300801EE0002E04DBB34502DD7E
:1008100001A8805D00E03020D4E901219047206AE2
:10082000401C2062761CAAF101005FEA000A0AD18E
:1008300000F0A2F8C0680168405CD4E9012190474B
:10084000206A401C2062281EA5F10105DCDC07E0BF
:10085000D4E9012118F8010B9047206A401C20625E
:10086000381EA7F10107F3DC2046AFF30080032018
:1008700011B041E601694A1C02610878704700B571
:100880008FB0CDE901310021059105497944CDE9C9
:10089000031011466846FFF7EDFC0FB000BD0000E5
:1008A000E5FFFFFF0A6802F8010B0A6070470000CD
:1008B000074B70B50D467B44FFF7E1FF0446284621
:1008C00000F082F910B14FF0FF3070BD204670BDCE
:1008D000173C00000FB4002300B589B00CA90091AB
:1008E0000B99CB60214B7B440693214B7B440793B0
:1008F00004236FF00042CDE901321E4A7A446B4670
:1009000008920246002004F075FA09B05DF814FB65
:1009100070B506464FF0FF3015460C46324686B09D
:100920000091CDE9010169460020049004A8FFF779
:10093000D1FF02460498211825B108B1084600E00D
:1009400020462860049800280DD0002A02DD009877
:10095000884208D03246081B69460094CDE901045C
:1009600004A8FFF7B7FF06B070BD0000BB01000090
:10097000D3010000130100000048704774060020F6
:10098000004870475406002030B5B0F10A024FEA23
:10099000900E71F100034EEA817EB0EB0E0061EB28
:1009A00091014FEA101E4EEA017E10EB0E0041EB62
:1009B00011114FEA102E4EEA016E10EB0E0041EBC2
:1009C00011214FEA104E4EEA014E10EB0E0041EBA2
:1009D0001141401841F100014FEAD00040EA417056
:1009E0004FEAD10110EB80054FEA810444EA90748C
:1009F00044EB01046D1944EB0404521BA3414FF076
:100A0000000348BF0A3200D530BD401C41F100014F
:100A100030BD10B5044600F005F90068005D00F037
:100A2000010010BD2DE9F0411F4604460326016870
:100A3000072A01F4006004DB08B116A505E016A53D
:100A400003E008B115A500E015A521F01000206015
:100A5000A069C01EA0610FB1401EA0612046AFF387
:100A600000804FB1D4E9012138469047206A401CEC
:100A70002062C01C206206E0206AFAE7D4E9012166
:100A800015F8010B9047761EF8D22046AFF3008090
:100A9000BDE8F0814E414E006E616E00494E460049
:100AA000696E6600426842B1016811F8013B23B1EA
:100AB000521EC0E90012184670470121C160881E0D
:100AC000704742685AB1C368016843B983688B4272
:100AD00005D0491E521CC0E90012002070474FF09B
:100AE000FF3070472DE9F047814616468AB03548F9
:100AF00078440DC88DE80D0032487844801C03AC62
:100B00000DC884E80D0041F69B300844372190FB66
:100B1000F1F290FBF1F5A5F1800501FB12041B3CFD
:100B200002D56442012000E00020DFF898A0804652
:100B30000027FA44AAF1BE0A0EE0E0070AD03246C6
:100B4000684607EB470101230AEB810101F06CF8CD
:100B50008DE8070064107F1C002CEED1194F7F44F4
:100B6000AE3F19E0E80715D007EB04100DF1180AA5
:100B700090E80E008AE80E00C068F04201D1981992
:100B800008903246012306A903A801F04DF803ABF3
:100B900083E807006D10641C002DE3D14FF00103C2
:100BA00032466946B8F1000F03A802D001F012F8EE
:100BB00001E001F039F8C9E90001C9F808200AB0DC
:100BC000BDE8F08764520000007B00F080007047B1
:100BD00000487047540600207546FFF7F9FFAE46FF
:100BE00005006946534620F00700854618B020B539
:100BF000FFF70CFBBDE820404FF000064FF0000768
:100C00004FF000084FF0000B21F00701AC46ACE8B4
:100C1000C009ACE8C009ACE8C009ACE8C0098D4621
:100C20007047000010B5FFF7A7FE001D10BD00BF04
:100C3000413E00002DE9FF4F06468BB00878FF28A3
:100C400006D0491C2D2805D000244FF0000908E0EB
:100C500000200CE00124F8E709EB8903491C00EBB4
:100C600043090878FF28F7D114B1C9F10000814683
:100C7000107800252C46AA4629462D2801D02B287D
:100C800004D1521C2D2813D0002082468B461078A8
:100C9000FF280FD04FF0000C0A21521CA5FB017851
:100CA00004FB018105FB0C11C5194BEB0104EEE7B8
:100CB0000120EAE7002108464FF00000BAF1000FDA
:100CC00002D000EB80004008C0F38157012F01DD06
:100CD0004FF0FF370E9955EA040009EB01080BD0DD
:100CE0004FF0020918F5FA7F16DA4FEACA70002FA2
:100CF000706008DD012007E04FEACA70C6E900B065
:100D00000FB0BDE8F08F00203060FFF739FEC0F86B
:100D100000901821084616E0B8F5FA7F18DD002F7C
:100D200002DAF748784401E0F6487844D0E9001048
:100D3000C6E9001040EACA707060FFF721FEC0F8F3
:100D40000090142108460FB0BDE8F04F03F0EDBF4E
:100D5000002108464FF00000B8F10001099002DAC6
:100D6000C7F1000200E03A4601DAC8F1000106A826
:100D7000FFF7B8FE06AB93E8070003AB83E8070074
:100D800044F23E005BEA04010090584604D144F26C
:100D90001E012C465D460091210C0904014306D139
:100DA0000099240444EA15442D041039009104F0FC
:100DB0007F41014306D10099240244EA15642D02C3
:100DC0000839009104F07041014306D100992401D3
:100DD00044EA15742D01091F009104F040410143BC
:100DE00006D10099A40044EA9574AD00891E0091D3
:100DF00004F00041084304D100986D196441401E7D
:100E000000904FF001033A466846B8F1000FCDE973
:100E1000014503A902DD00F01CFF01E000F0EFFE38
:100E2000BAF1000F04460D4601D084F000440021C1
:100E300008464FF00000099940F2FF77484010F053
:100E40000C0F07D124F00040284303D0C4F30A500C
:100E5000B84212D1FFF794FDC0F80090C4F30A50D5
:100E6000B8420AD1A8487844D0E90010C6E9001079
:100E700004F000410843706042E7C6E900543FE7D0
:100E80002DE9FF4F1F464FF0000A4FF0FF3845464F
:100E900091B0D7E90146CDF83CA0FFF76DFDC068E1
:100EA0000168405C1090B96912986D1C8847396AD6
:100EB000814688470028F6D1B9F1FF3F0AD0002EBD
:100EC00024F4D06411DDB9F12B0F08D0B9F12D0F46
:100ED0000BD102E0404615B013E744F48064B969D1
:100EE00012986D1C8847761E8146600504A901D5BD
:100EF0002D2000E02B20002E01F1010B0DF1300818
:100F00008DF810003FDDB9F1690F08D0B9F1490F34
:100F100005D0B9F16E0F02D0B9F14E0F1CD13B468E
:100F200001A8009580E85002DDE912126FF002007E
:100F300003F064FFC11CCED10EE0B96912986D1C9C
:100F4000884781461398761E44F4007405600F9814
:100F5000401C002E0F9016DDB9F1300FEDD0B9F125
:100F6000780F02D0B9F1580F0DD10F9801280AD18E
:100F70003B46CDE90054DDE91212001F029603F052
:100F80003BFFC11CA7D1109989453ED144F0800494
:100F900006E01399681CAAF1010A44F40074086081
:100FA000B9696D1C1298761E884730288146F0D0AA
:100FB0002BE01099894505D1200603D4761E44F014
:100FC000800418E0484603F02AFA08B3761E0DF1B3
:100FD00023018B4544F4007408D2A9F130000BF8CA
:100FE000010B200607D5AAF1010003E0200602D478
:100FF0000AF101008246A00502D51399681C086019
:10100000B96912986D1C88478146002ED1DC53E0E7
:10101000002E51DDB9F1650F02D0B9F1450F4BD16A
:10102000A00549D5B9696D1C1298761E24F4407448
:101030008847002E81460CDD2B2804D0B9F12D0FF6
:1010400007D144F48074B96912986D1C8847761EE4
:101050008146E00501D52D2100E02B2108F8011B78
:10106000CDF8008021E0761E0DF13901884544F469
:1010700000740CD2A9F1300010F0FF0088F80000D5
:1010800002D10099884509D908F1010806E0E00578
:1010900001D51E4801E042F20F708246B9691298EC
:1010A0006D1C8847814613980560002E04DD484674
:1010B00003F0B5F90028D6D1F96912988847FF20C6
:1010C00053468BF8000088F8000000200A900B902F
:1010D00004AA0CA90AA8FFF7ADFDA00502D46FF081
:1010E0000100F8E614F0240F12D0E0071CD1386894
:1010F000DDE90A12031D3B600068C0E9001213E03D
:101100007050000062500000264F0000F1D8FFFF31
:101110000AA9684603F012F9E00705D13868009A79
:10112000011D3960006802602846D4E610B5044607
:10113000AFF300802046BDE81040FFF753B8000031
:101140004FF0013C50F8042B51F8043B9A4221D156
:10115000A2EB0C03934313EACC1317D150F8042BE2
:1011600051F8043B9A4215D1A2EB0C03934313EAC6
:10117000CC130BD150F8042B51F8043B9A4209D1FF
:10118000A2EB0C03934313EACC13DBD04FF0000027
:10119000704700BFD01A01BAB1FA81F101F018010D
:1011A00022FA01F0CB40C1F12001DBB2C0B2C01A7B
:1011B0002CFA01F3D11A914311EAC311E6D1704719
:1011C0002DE9FF4F1F464FF03C0987B04FF000421A
:1011D000DDE9141001F10108DDF858A002EA4050E1
:1011E0000390002005908346054604460490B969A3
:1011F000461E08988847AAF1010A0290BAF1000F2A
:101200003BDD02982E2815D0102100F016FA002898
:101210002EDB4FF0010B0599014317D0B9F1000FF8
:101220000BDB4A46C11700F0F5F905430C43A9F161
:10123000040905E0012004900BE008B145F0010528
:1012400001200590049820B9361D02E0049800B1F1
:10125000361FB969089808F101088847BBF1000FEB
:10126000AAF1010A0290C9D00999C1F80080C5E726
:101270000298702808D0502806D0F9690898884745
:10128000BBF1000F14D04FE0002002900120BBF111
:10129000000F049009D0B969089808F1010888473F
:1012A000AAF10109B9F1000F07DCF969089888472C
:1012B0006FF001000BB0BDE8F08F2B2804D02D2873
:1012C0000CD14FF0FF300490B969089808F101087B
:1012D0008847A9F10109B9F1000FE6DD411CE4D00E
:1012E0000A2100F0AAF90028DFDB029908F10108C1
:1012F00001EB810100EB41000290B9690898884731
:101300000A2100F09AF9099AA9F10109B9F1000F2F
:10131000C2F8008001DD0028E7DAF96908988847FB
:101320000499029800FB016655EA040004D004F019
:101330004041090002D006E0039898E0A40044EA86
:101340009574AD00B61E04F00041080002D16D197D
:101350006441761E159810F0240F03D04FF00B094E
:101360005C4803E04FF028096FF07D008246564547
:1013700007DAAAEB06018944B9F1410F01DD4FF00C
:10138000410901200021A9F1010200F043F90246C0
:1013900028400B462140084301D0012100E00021F4
:1013A000501E029143F1FF3128402140084301D0F3
:1013B000012000E000200299834651EA0B014FD042
:1013C000002108464FF00000039900F4400039B1B5
:1013D00000EB80004FF4400100EBD07001EA6000A8
:1013E0008015012802DD4FF0FF3000E013D0401CD3
:1013F00036D0029860B3BBF1000F0CD14A460120F1
:10140000002100F007F928402140084301D00120C5
:1014100000E00020E0B101204A46002100F0FAF887
:10142000034640190A4661412D1A8C4111D3B9F186
:10143000400F09DD159810F0240F02D0AAF13406F0
:1014400003E0AAF1170600E0761C00254FF00044E7
:1014500006E05B1E42F1FF3220EA030521EA0204A6
:10146000CAF10100B04206DA1B4903980843019013
:10147000002000900EE0039AC4F3D321E80A0A4347
:10148000164940EA44500A433146CDE90002684615
:1014900002F0BAFF159810F0240F0BD01598C00772
:1014A00015D13868DDE90012031D3B600068C0E912
:1014B00000120CE002A8694602F040FF1598C00730
:1014C00005D13868029A011D396000680260404603
:1014D000F0E6000002FCFFFF0000F07F0000F03F9C
:1014E0002DE9FF4F92461D4685B04FF00041DDE9E2
:1014F000124BDDE914727F1E01EA4B50414940F066
:10150000FF4940EA0108002122F020004928049107
:1015100002D04E2828D04CE03BA0012607C88DE819
:101520000700A9690698641C88477F1E014606D4F7
:101530001DF8060018B121F0200181420BD0E969A5
:1015400006988847032E34D0082E32D06FF0010061
:1015500009B0BDE8F08F761C032E01D0082EE0D133
:10156000601CCAF80000DCE7A9690698641C88477B
:101570007F1E2AD420F02000412826D1A969069890
:10158000641C88477F1E20D420F020004E281CD1E8
:10159000A9690698641C88477F1E48F4002849F40E
:1015A0008009CAF8004001D4282806D0E9690698C5
:1015B00088475FEACB7012D022E0A9690698641CC4
:1015C00088477F1E01D4002803DAE9690698884716
:1015D000BCE72928F1D1641CCAF80040E9E71BF0F8
:1015E000240F07D028680499031D2B600068C0E908
:1015F000001805E02868021D2A600068C0F8009005
:101600002046A5E70000F07F494E46494E4954590F
:1016100000000000B2F120030AD5C2F1200301FA54
:1016200002F120FA03F300FA02F041EA03017047E5
:1016300000FA03F14FF0000070473A2800D230382A
:1016400020F02002412A01D3A2F13700884201D3C1
:101650004FF0FF3070475FEA400C08BF91F0000F79
:101660004FEA8C234FEAC12243EA51514FEA1C5002
:1016700018BF00F5F0404FEA300018BF41F00041BC
:101680005FEA6C5C00F02980BCF1FF3F08BF40F0CE
:1016900080407047130C06BF12044FF0100C4FF03F
:1016A000000C130E04BF12020CF1080C130F04BF40
:1016B00012010CF1040C930F04BF92000CF1020C08
:1016C000D30F04BF52000CF1010C11464FF0000281
:1016D000A0F11F00A0EB0C00704711F0004F08BFF5
:1016E000704731F000413FF4D5AF0B0C06BF090441
:1016F0004FF0100C4FF0000C0B0E04BF09020CF160
:10170000080C0B0F04BF09010CF1040C8B0F04BF74
:1017100089000CF1020CCB0F04BF49000CF1010C45
:10172000CCF12003A0EB0C0022FA03F302FA0CF236
:1017300041EA030100F10100704720F07F4C80EA8C
:10174000030023F07F47ACEB070303F57C5300F065
:10175000004003F1FF032DE980494FEA154B09B41E
:101760004FEA144325EA0B4E24EA03480FF20426FD
:1017700006EB132749083E785FEA320203FB06674F
:10178000C7F5000707FB06F64FEA54374FEAD6467F
:1017900006F1020607FB066CCCF1005C4FEA1C4721
:1017A0002CEA074C07FB06F40CFB06F504EB154688
:1017B0004FEA961634BF00204FF000404FEAD13771
:1017C00006FB07FC4FEA1C4C0CFB0BF7D21B03FB80
:1017D0000CF761EB07010CFB0EF7B0EB074072EB67
:1017E00017420CFB08F734BFA2EB0742B2EB0742EB
:1017F00061EB17414FEA0C444FEA910706FB07FCE7
:101800004FEA1C4C0CFB0BF7B0EBC74072EB5732A6
:1018100003FB0CF734BFA2EBC742B2EBC74261EB4C
:1018200057310CFB0EF7B0EBC70072EB57720CFB95
:1018300008F734BFA2EBC702B2EBC70261EB5771E6
:10184000039F4FEA816141EA921104EBCC044FEA15
:10185000D1374FEA826206FB07FC42EA90124FEA58
:1018600080604FEA1C4C0CFB0BF7D21B03FB0CF700
:1018700061EB07010CFB0EF7B0EB074072EB174270
:101880000CFB08F734BFA2EB0742B2EB074261EB57
:1018900017414FEA8C554FEA910704EB9C2406FB55
:1018A00007FC4FEA1C4C0CFB0BF7B0EBC74072EB8C
:1018B000573203FB0CF734BFA2EBC742B2EBC7426F
:1018C00061EB57310CFB0EF7B0EBC70072EB5772B0
:1018D0000CFB08F734BFA2EBC702B2EBC70261EB07
:1018E000577115EB4C254FEA816141EA92114FEA9D
:1018F00082624FEAD13742EA901206FB07FC44F1BC
:1019000000044FEA80604FEA1C4C0CFB0BF7D21B23
:1019100003FB0CF761EB07010CFB0EF7B0EB074084
:1019200072EB17420CFB08F734BFA2EB0742B2EB95
:10193000074261EB174115EB1C154FEA813141EA73
:1019400092414FEA823242EA90424FEA80304FEAB7
:101950000C7644F1000448EA03434EEA0B484FF08A
:10196000000EB2EB080C71EB030724BF6246394648
:101970004EEB0E0E4FF0000B0018524149414BEB5D
:101980000B0BB2EB080C71EB03077BF1000B24BFD0
:10199000624639464EEB0E0E4FF0000B00185241D6
:1019A00049414BEB0B0BB2EB080C71EB03077BF1DE
:1019B000000B24BF624639464EEB0E0E51EA020779
:1019C00018BF46F0010616EB0E7655F1000254F1F1
:1019D000000103D5BDE88901BDE80088BDE88901A3
:1019E000BDE80048B619524141EB0101A3F10103E2
:1019F000704780807F7E7D7C7B7A7978777676757C
:101A00007473727171706F6E6E6D6C6C6B6A6A69F3
:101A10006868676666656464636362616160605F8D
:101A20005F5E5E5D5D5C5C5B5B5A5A595958585706
:101A3000575656555555545453535252525151506E
:101A400050504F4F4F4E4E4D4D4D4C4C4C4B4B4BC1
:101A50004A4A4A4949494848484747474746464607
:101A60004545454444444443434343424242424142
:101A70004141000046EA0646A3F570534FEA164678
:101A800046EA42564FEAD22242EA415210B54FEAA4
:101A9000D121A3F1010300F02FF820F0004000F164
:101AA000020C00F0004701EB00501146BCF5006F3E
:101AB00040EA070000D210BDBAF1000F0AD01CB5F1
:101AC00003B44FF004004FF004014FF000000FBCCE
:101AD000BDE810404FF00001BBF1010FB9BF044851
:101AE0004FF0FF310348002140EA070010BD00BF5E
:101AF000FFFFEF7F0000F07F002B9C4630D4770083
:101B00002BD01CB54FEA370703B44FF010004FF04D
:101B10001001BAF1000F06D0BCF1000FDCBF40F09D
:101B2000080040F008014FF000000FBCBDE8104075
:101B30000BF1010BBBF1010F08BF5FEA170722BFD2
:101B400012F1010211F101014FF0004143F10003D4
:101B500000F0004043EA00007047F9D35708D0E78F
:101B600046EA064613F1400F4FEA16461FDD13F111
:101B7000200FDFBF16430A46002120335B42BED050
:101B8000C3F1200746EA064602FA07F74FEA16466F
:101B900046EA0706C3F1200722FA03F201FA07F723
:101BA00021FA03F14FF0000342EA0702A7E746EAF1
:101BB000020646EA06464FEA164646EA0106BCBF5A
:101BC00046EA0646360C4FF000034FF000024FF095
:101BD000000194E72DE9804C9A46934670B491E851
:101BE000380007C831EA400C48BF34EA430C03D53B
:101BF000FFF7A3FDFFF780FFF0BCBDE8008C2DE9E7
:101C0000804C9A46934670B491E8380007C831EA90
:101C1000400C48BF34EA430C03D5FFF78EFDFFF7B5
:101C200029FFF0BCBDE8008C2DE9804C9A46934614
:101C300070B491E8380007C810F0804F08BF13F067
:101C4000804F03D100F01AF8FFF756FFF0BCBDE853
:101C5000008C2DE9804C9A46934670B491E8380088
:101C600007C810F0804F08BF13F0804F03D100F079
:101C700005F8FFF7FFFEF0BCBDE8008C20F07F47C1
:101C800080EA030023F07F4C07EB0C03A3F57C53A1
:101C900000F00040A3F1FE0392F0000F00F0B380CB
:101CA00095F0000F00F077802DE901494FEA1140CF
:101CB0004FEA144621EA004800FB06FC24EA0647E6
:101CC00008FB06F607FB08F800FB07F718EB0648C9
:101CD0004CEB164C4FEA124B18EB07484FEA1546EF
:101CE0004CEB174022EA0B4E0BFB06FC25EA06479D
:101CF0000EFB06F607FB0EFE0BFB07F71EEB064E70
:101D00004CEB164C4FF000061EEB074E4CEB174BFE
:101D100018EB0B0840F1000018EB0E0B58EB000815
:101D200040F100008F1A4FF000013CBFC943661B11
:101D300014BFB5EB040C00213CBFC943F61B4FEAAE
:101D400017444EEA8E0E27EA04454FEA1C4704FB6F
:101D500007622CEA074C05FB07F70CFB05F604FBB2
:101D60000CFC16EB074642EB174216EB0C4642EB17
:101D70001C421BEB060658EB0202414146EA9E0656
:101D800001D5BDE80189B619524141EB0101A3F12A
:101D90000103BDE801894FEA14454FEA114724EADF
:101DA000054621EA074C05FB07F406FB07F70CFB89
:101DB00006F105FB0CFC11EB074144EB17444FEA1D
:101DC000124711EB0C4144EB1C4422EA074C05FB83
:101DD00007F206FB07F70CFB06F605FB0CFC16EBFF
:101DE000074642EB174216EB0C4642EB1C456A18BD
:101DF00054F1000148BF7047B619524141EB01014F
:101E0000A3F10103704795F0000F37D04FEA11425C
:101E10004FEA144721EA024624EA074C02FB07F185
:101E200006FB07F70CFB06F402FB0CFC14EB074463
:101E300041EB17414FEA154714EB0C4441EB1C41B1
:101E400025EA074C02FB07F506FB07F70CFB06F635
:101E500002FB0CFC16EB074645EB174516EB0C4650
:101E600045EB1C42121951F1000148BF7047B619E9
:101E7000524141EB0101A3F1010370474FEA1445C0
:101E80004FEA114724EA054621EA074C05FB07F112
:101E900006FB07F70CFB06F24FF0000605FB0CFCF7
:101EA00012EB074241EB174112EB0C4251EB1C4184
:101EB00048BF7047921841EB0101A3F1010370473D
:101EC00000BFFEE7704710B5202000F0DBF810BD22
:101ED00070B50446002594F82100022803D00420A0
:101EE000A0630125C1E02068006820F00E00216891
:101EF00008602068006820F00100216808605C49E3
:101F00002068884252D95A4978392068884201D1DC
:101F1000012047E0564964392068884201D11020E9
:101F200040E0534950392068884201D1801539E09A
:101F30004F493C392068884201D1801432E04C4935
:101F400028392068884202D14FF480302AE048497D
:101F500014392068884202D14FF4801022E04449AD
:101F60002068884201D140041CE042492068884230
:101F700001D1012016E03F4914312068884201D187
:101F800010200FE03B4928312068884201D180159C
:101F900008E038493C312068884201D1801401E0D2
:101FA0004FF480303349091F086051E030497839D7
:101FB0002068884201D1012047E02D49643920681A
:101FC000884201D1102040E02949503920688842D8
:101FD00001D1801539E026493C392068884201D179
:101FE000801432E0224928392068884202D14FF417
:101FF00080302AE01E4914392068884202D14FF40B
:10200000801022E01A492068884201D140041CE077
:1020100018492068884201D1012016E01549143181
:102020002068884201D110200FE012492831206831
:10203000884201D1801508E00E493C312068884271
:1020400001D1801401E04FF48030094980394860A3
:10205000012084F8210000BF002084F8200000BF88
:10206000606B10B12046616B8847284670BD000048
:10207000800002400804024010B50446022001F02E
:10208000BFFA10BD10B5044604480068204020B1D6
:10209000024804602046FFF7EFFF10BD1404014022
:1020A0002DE9F847024600239C467BE14FF00108EA
:1020B00008FA03F4D1F8008008EA0400A0427DD1B8
:1020C000DFF8F4A2D1F80480A8EB0A09D0453AD091
:1020D00014DCB8F1030F50D009DCB8F1000F31D097
:1020E000B8F1010F1CD0B8F1020F49D120E0B8F1CE
:1020F000110F18D0B8F1120F42D11EE0B9F5881FA8
:1021000025D006DCB9F5803F20D0B9F5801F37D146
:102110001AE0B9F5001F18D0B9F5041F30D117E047
:10212000D1F80CC02DE0D1F80C8008F1040C28E0A7
:10213000D1F80C8008F1080C23E0D1F80C8008F1EC
:102140000C0C1EE000BF00BF00BF00BF00BF00BFFF
:10215000D1F80880B8F1000F02D14FF0040C0BE069
:10216000D1F80880B8F1010F03D14FF0080C1461C9
:1021700002E04FF0080C546103E04FF0000C00E067
:1021800000BF00BFFF2801D8904601E002F104081B
:102190004646FF2802D84FEA830803E0A3F1080867
:1021A0004FEA88084746D6F800804FF00F0909FA31
:1021B00007F928EA09080CFA07F900E07AE048EA8A
:1021C0000908C6F80080D1F8048008F08058B8F1FA
:1021D000805F6FD100BFDFF8E481D8F8188048F045
:1021E0000108DFF8D891C9F81880C846D8F81880D7
:1021F00008F00108CDF8008000BF00BF4FEAB938F1
:102200004FEA930958F829504FEA83784FEA187932
:102210004FF00F0808FA09F825EA0805DFF8A08151
:10222000424502D14FF0000824E0DFF89881424592
:1022300002D14FF001081DE0DFF88C81424502D148
:102240004FF0020816E0DFF88481424502D14FF0DA
:1022500003080FE0DFF87881424502D14FF004080F
:1022600008E0DFF87081424502D14FF0050801E037
:102270004FF006084FEA83794FEA197908FA09F80E
:1022800048EA0505DFF850814FEA930948F82950DC
:10229000D1F8048008F48038B8F5803F0BD1DFF81E
:1022A0003C81D8F8008048EA0008DFF83091C9F88E
:1022B00000800AE075E0DFF82481D8F8008028EA81
:1022C0000008DFF81891C9F80080D1F8048008F4FC
:1022D0000038B8F5003F0ED1DFF8008108F104089E
:1022E000D8F8008048EA0008DFF8F09009F1040906
:1022F000C9F800800DE0DFF8E48008F10408D8F8A0
:10230000008028EA0008DFF8D49009F10409C9F830
:102310000080D1F8048008F48018B8F5801F0ED131
:10232000DFF8B88008F10808D8F8008048EA00080B
:10233000DFF8A89009F10809C9F800800DE0DFF87E
:102340009C8008F10808D8F8008028EA0008DFF827
:102350008C9009F10809C9F80080D1F8048008F4CC
:102360000018B8F5001F0ED1DFF8708008F10C08D6
:10237000D8F8008048EA0008DFF8609009F10C09FD
:10238000C9F800800DE0DFF8548008F10C08D8F897
:10239000008028EA0008DFF8449009F10C09C9F828
:1023A00000805B1CD1F8008028FA03F8B8F1000F18
:1023B0007FF47CAEBDE8F8870000111000100240E9
:1023C00000080140000C01400010014000140140D1
:1023D00000180140001C01400800014000040140B9
:1023E000024693680B400BB1012000E000207047CB
:1023F0000AB1016101E00B04036170470148006804
:102400007047000044000020034800680349097831
:102410000844014908607047440000204C00002037
:1024200010B50848006840F0100006490860052013
:1024300000F080F80F2000F007F800F02BF80020E3
:1024400010BD00000020024070B504460E48007820
:102450004FF47A71B1FBF0F00C490968B1FBF0F56B
:10246000284600F0F7FB08B1012070BD102C07D200
:1024700000222146501E00F01EF80548046001E0CD
:102480000120F2E70020F0E74C000020400000208F
:1024900048000020704701460846002809DB00F08C
:1024A0001F0301229A4043099B0003F1E023C3F874
:1024B000002100BF70472DE9F05F80460D461646AB
:1024C000002701F00FFF074639462A46334601F040
:1024D0000700C0F1070ABAF1040F02D94FF0040A4D
:1024E00001E0C0F1070AD14600F1040ABAF1070F72
:1024F00002D24FF0000A01E0A0F1030AD4464FF0E7
:10250000010A0AFA09FAAAF1010A0AEA020A0AFA0F
:102510000CFA4FF0010B0BFA0CFBABF1010B0BEAC1
:10252000030B4AEA0B042146404601F0E3FEBDE8F6
:10253000F09F000000BF00F00702064B19684FF63D
:10254000FF031940044B0B4343EA0221014B19607E
:1025500000BF70470CED00E00000FA0570B50446BE
:102560000D460CB9012070BD5A48006800F0070004
:10257000A8420ED25748006820F00700284355496A
:1025800008600846006800F00700A84201D001205A
:10259000E9E7207800F0020002281DD1207800F041
:1025A0000400042805D14C48406840F4E0604A49E2
:1025B0004860207800F00800082805D146484068A7
:1025C00040F46050444948604348406820F0F000BF
:1025D000A168084340494860207800F0010078B3C2
:1025E0006068012806D13C48006800F4003090B9CA
:1025F0000120B8E76068022806D13748006800F07B
:10260000007040B90120AEE73348006800F00200D6
:1026100008B90120A7E73048406820F0030061684E
:1026200008432D494860FFF7E9FE064609E0FFF739
:10263000E5FE801B41F28831884202D9032092E7EF
:1026400007E02548406800F00C006168B0EB810F9E
:10265000EDD12048006800F00700A8420ED91D48BF
:10266000006820F0070028431A49086008460068FF
:1026700000F00700A84201D0012074E7207800F0A4
:102680000400042807D11448406820F4E060E168A1
:10269000084311494860207800F00800082808D154
:1026A0000D48406820F46050216940EAC1000A49A1
:1026B000486000F03FF808494968C1F30311074A30
:1026C000515CC8400649086006480068FFF7BCFE38
:1026D000002048E70020024000100240B35C0008E0
:1026E00040000020480000200148006870470000BA
:1026F0004000002000B5FFF7F7FF04494968C1F327
:102700000221034A515CC84000BD00000010024095
:10271000C35C000800B5FFF7E7FF04494968C1F34F
:10272000C221034A515CC84000BD000000100240B5
:10273000C35C0008F0B585B00FF26C0C9CE8E010AB
:1027400001A8A0E8E0101CA52D680095002100223A
:10275000002300240020194D696801F00C05F5B133
:10276000042D02D0082D19D101E0154819E001AD62
:10277000C1F38346AC5D01F4803555B10F4D6D68F2
:10278000C5F340451DF805200D4D6543B5FBF2F33B
:1027900002E00C4D04FB05F3184602E000BF0848B8
:1027A00000BF00BF05B0F0BD02030405060708091D
:1027B0000A0B0C0D0E0F1010010200000010024059
:1027C00000127A0000093D00F8B504460CB901205A
:1027D000F8BD207800F00100002878D0F848406863
:1027E00000F00C0004280CD0F548406800F00C0004
:1027F000082811D1F248406800F48030B0F5803FDD
:102800000AD1EF48006800F4003000285FD060680B
:1028100000285CD10120DBE700BF6068B0F5803F95
:1028200006D1E748006840F48030E549086028E0B8
:10283000606858B9E248006820F48030E0490860D8
:102840000846006820F4802008601AE06068B0F54F
:10285000A02F0BD1DA48006840F48020D8490860E6
:102860000846006840F4803008600AE0D4480068F8
:1028700020F48030D24908600846006820F48020A7
:10288000086000BF606888B1FFF7B8FD054606E044
:10289000FFF7B4FD401B642801D9032098E7C8481E
:1028A000006800F400300028F2D010E0FFF7A6FD29
:1028B000054606E0FFF7A2FD401B642801D903206E
:1028C00086E7BF48006800F400300028F2D1207885
:1028D00000F00200022857D1B948406800F00C000F
:1028E00050B1B748406800F00C00082818D1B4482F
:1028F000406800F4803098B9B148006800F00200E8
:1029000020B12069012801D0012061E7AC480068AE
:1029100020F0F800616940EAC100A949086033E08D
:102920002069E8B10120A7490860FFF767FD054667
:1029300006E0FFF763FD401B022801D9032047E7AB
:102940009F48006800F002000028F2D09C48006810
:1029500020F0F800616940EAC1009949086013E07D
:10296000002098490860FFF749FD054606E0FFF79B
:1029700045FD401B022801D9032029E79048006843
:1029800000F002000028F2D1207800F008000828AA
:102990002DD1A069B8B101208B490860FFF72EFD49
:1029A000054606E0FFF72AFD401B022801D9032057
:1029B0000EE78348406A00F002000028F2D00120B0
:1029C00001F090F813E000207F490860FFF716FD42
:1029D000054606E0FFF712FD401B022801D903203F
:1029E000F6E67748406A00F002000028F2D120782D
:1029F00000F00400042873D100277148C06900F07A
:102A0000805070B900BF6E48C06940F080506C497A
:102A1000C8610846C06900F08050009000BF00BF48
:102A200001276A48006800F48070B0B96748006800
:102A300040F4807065490860FFF7E0FC054606E059
:102A4000FFF7DCFC401B642801D90320C0E65F4887
:102A5000006800F480700028F2D000BFE068012810
:102A600006D15748006A40F001005549086227E046
:102A7000E06858B95248006A20F0010050490862E5
:102A80000846006A20F00400086219E0E0680528A2
:102A90000BD14B48006A40F00400494908620846DF
:102AA000006A40F0010008620AE04548006A20F030
:102AB0000100434908620846006A20F004000862E9
:102AC00000BFE068A0B1FFF799FC054609E0FFF7F9
:102AD00095FC401B41F28831884202D9032077E6F9
:102AE00022E03748006A00F002000028EFD012E030
:102AF000FFF784FC054608E0FFF780FC401B41F22D
:102B00008831884201D9032062E62D48006A00F02E
:102B100002000028F0D1012F05D12948C06920F01A
:102B200080502749C86100BFE069C8B324484068A5
:102B300000F00C00082860D0E069022848D100208D
:102B400020490866FFF75AFC054606E0FFF756FCE9
:102B5000401B022801D903203AE61948006800F01A
:102B600000700028F2D1206AB0F5803F07D11448E8
:102B7000406820F40030A168084311494860D4E956
:102B8000080108430E49496821F4741108430C49AF
:102B9000486001200B490866FFF730FC054607E056
:102BA0003DE0FFF72BFC401B022801D903200FE674
:102BB0000348006800F000700028F2D02FE0000009
:102BC0000010024000004242800442420070004077
:102BD000002014490866FFF711FC054606E0FFF7E0
:102BE0000DFC401B022801D90320F1E50E480068C6
:102BF00000F000700028F2D111E0E069012800D156
:102C0000E6E50948466806F48031206A814204D12D
:102C100006F47011606A814201D00120D8E50020DD
:102C2000D6E500000000424200100240042808D10E
:102C30004FF0E021096941F004014FF0E0221161F9
:102C400007E04FF0E021096921F004014FF0E02294
:102C50001161704770B504462546681EB0F1807F4B
:102C600001D301200FE0681E4FF0E02148610F21E1
:102C70004FF0FF3001F03EFB00204FF0E021886173
:102C800007200861002070BD704770470146086842
:102C9000C06840F001000B68D8600868806800F0E8
:102CA0000702062A05D00868006840F001000B689A
:102CB000186000207047704710B50446206800690E
:102CC000C0F34000D8B12068C068C0F34000B0B184
:102CD0006FF0020021680861012020772068806978
:102CE00000F0030018B12046FFF7E5FF05E020469D
:102CF00000F0ADF8204600F04AF900202077206867
:102D00000069C0F38000D8B12068C068C0F38000BB
:102D1000B0B16FF0040021680861022020772068BC
:102D2000806900F4407018B12046FFF7C4FF05E049
:102D3000204600F08CF8204600F029F9002020778A
:102D400020680069C0F3C000D8B12068C068C0F333
:102D5000C000B0B16FF0080021680861042020773E
:102D60002068C06900F0030018B12046FFF7A3FFF8
:102D700005E0204600F06BF8204600F008F900203E
:102D8000207720680069C0F30010D8B12068C068BF
:102D9000C0F30010B0B16FF0100021680861082086
:102DA00020772068C06900F4407018B12046FFF712
:102DB00082FF05E0204600F04AF8204600F0E7F8E0
:102DC000002020772068006900F0010058B12068D9
:102DD000C06800F0010030B16FF0010021680861A7
:102DE000204600F053F920680069C0F3C01058B1C4
:102DF0002068C068C0F3C01030B16FF08000216857
:102E000008612046FFF740FF20680069C0F380108A
:102E100058B12068C068C0F3801030B16FF0400036
:102E200021680861204600F03DF920680069C0F380
:102E3000401058B12068C068C0F3401030B16FF046
:102E40002000216808612046FFF71FFF10BD704772
:102E500070B504460D46164600BF94F83C000128A4
:102E600001D1022070BD012084F83C0000BF022087
:102E700084F83D0036B1042E1BD0082E31D00C2E24
:102E80005ED145E02946206800F072FF2068806925
:102E900040F00800216888612068806920F0040003
:102EA00021688861206880692969084321688861F0
:102EB00047E02946206800F093FF2068806940F4CD
:102EC0000060216888612068806920F48060216842
:102ED000886120688069296940EA01202168886149
:102EE0002FE02946206800F0B9FF2068C06940F053
:102EF00008002168C8612068C06920F004002168CA
:102F0000C8612068C069296908432168C86118E060
:102F10002946206800F0DEFF2068C06940F40060A8
:102F20002168C8612068C06920F480602168C86198
:102F30002068C069296940EA01202168C86100E071
:102F400000BF00BF012084F83D0000BF002084F8CE
:102F50003C0000BF00BF85E710B504460CB9012056
:102F600010BD94F83D0028B9002084F83C002046AC
:102F700000F00CF8022084F83D00211D206800F0CC
:102F800097FE012084F83D000020E9E77047704774
:102F900070B504460E4601223146206800F0D6FE88
:102FA0000F492068884203D00E492068884201D129
:102FB000012000E0002028B12068406C40F400406F
:102FC000216848642068806800F00705062D05D058
:102FD0002068006840F0010021680860002070BD92
:102FE000002C01400034014070B504460D4635B157
:102FF000042D0BD0082D10D00C2D1CD114E020680E
:10300000C06840F002002168C86015E02068C06810
:1030100040F004002168C8600EE02068C06840F0FD
:1030200008002168C86007E02068C06840F0100010
:103030002168C86000E000BF00BF01222946206867
:1030400000F084FE0F492068884203D00E492068B2
:10305000884201D1012000E0002028B12068406CA6
:1030600040F40040216848642068806800F007064A
:10307000062E05D02068006840F001002168086035
:10308000002070BD002C01400034014010B5044602
:103090000348844202D1022000F0B2FA10BD0000C1
:1030A000B8050020704770472DE9F04704462068B6
:1030B00005682068C668206847694FF00008C14667
:1030C00005F00F08B8F1000F0AD105F0200038B163
:1030D00006F0200020B1204600F050FFBDE8F08748
:1030E000B8F1000F6DD007F0010018B906F4907028
:1030F000002866D005F0010030B106F4807018B1E8
:10310000E06B40F00100E06305F0040030B107F02F
:10311000010018B1E06B40F00200E06305F002002E
:1031200030B107F0010018B1E06B40F00400E0633B
:1031300005F0080030B107F0010018B1E06B40F075
:103140000800E063E06B68B305F0200028B106F0EA
:10315000200010B1204600F011FF20684069C0F344
:103160008019E06B00F0080010B9B9F1000F22D00F
:10317000204600F0E3FE2068406900F04000B0B156
:103180002068406920F0400021684861606B50B1C0
:103190001748616B4863606BFEF79AFE10B1606B75
:1031A000416B88470CE02046FFF77DFF08E0204692
:1031B000FFF779FF04E02046FFF775FF0020E0638A
:1031C0008CE705F0800030B106F0800018B1204691
:1031D00000F0F8FF82E705F0400030B106F0400053
:1031E00018B1204600F0BAFE78E700BF76E700008D
:1031F000293F000810B504460CB9012010BDA06994
:1032000000B100E000BF94F8390028B9002084F82C
:103210003800204600F028F8242084F8390020687F
:10322000C06820F400502168C860204600F0FAFE13
:103230002068006920F49040216808612068406996
:1032400020F02A00216848612068C06840F40050DE
:103250002168C8600020E063202084F8390084F8E9
:103260003A000020CAE7000010B586B0044649497C
:103270002068884243D100BF4748806940F004007D
:10328000454988610846806900F00400019000BF4C
:1032900000BF00BF0846C06940F40030C86108465E
:1032A000C06900F40030019000BF00BF00BF0846B5
:1032B000806940F0010088610846806900F00100E3
:1032C000019000BF00BF0420029002200390012063
:1032D00004900320059002A93048FEF7E1FE082083
:1032E00002900020039002A92C48FEF7D9FE262068
:1032F000FFF7D1F8032211462620FFF7DCF8284912
:103300002068884244D100BF2348806940F008000B
:10331000214988610846806900F00800019000BFDB
:1033200000BF00BF0846C06940F48020C86108465D
:10333000C06900F48020019000BF00BF00BF0846B4
:10334000806940F0010088610846806900F0010052
:10335000019000BF00BF08150290022003900120D9
:1033600004900320059002A90E48FEF799FE4FF441
:10337000006002900020039002A90A48FEF790FE28
:103380002720FFF788F8022203212720FFF793F870
:1033900006B010BD0044004000100240000801408B
:1033A00000480040000C014010B5034693F83A0075
:1033B00020282FD101B10AB9012010BD00BF93F818
:1033C0003800012801D10220F7E7012083F83800F6
:1033D00000BF99629A85DA850020D863222083F89D
:1033E0003A0000BF002083F8380000BF1868C068AA
:1033F00040F480701C68E0601868406940F001008B
:103400001C6860611868C06840F020001C68E060BB
:103410000020D2E70220D0E710B5044627492068F3
:10342000884222D1012226492648FFF7BDFFC8B9AC
:10343000234800780A280AD100202349234A128809
:103440008854224908800120214908700DE01C4859
:1034500001781E4802880088401C1C4B18801A48BE
:10346000815402E01BA0FCF7E5FE1E49206888425B
:1034700022D1012212491C48FFF796FFC8B9104813
:1034800000780A280AD100200F49184A1288885467
:10349000164908800120164908700DE00848017897
:1034A000124802880088401C104B1880064881543E
:1034B00002E008A0FCF7BEFE10BD00000044004082
:1034C0003600002038010020B8010020380000201C
:1034D0003C00002072656365697665206661696CF1
:1034E000640A000000480040780100203A000020F3
:1034F0003D0000202DE9F84304460D4616461F46C0
:103500004FF0000994F8390020285CD105B116B9B4
:103510000120BDE8F88300BF94F83800012801D1EC
:103520000220F6E7012084F8380000BF0020E063A5
:10353000212084F83900FEF761FF8146A684E684E5
:103540002BE0E08C401EE084A068B0F5805F16D1CF
:103550004B46002280212046009700F067FE08B10C
:103560000320D6E7A846B8F80000C0F30800216899
:103570004860206908B9AD1C0FE06D1C0DE04B469A
:10358000002280212046009700F050FE08B1032061
:10359000BFE715F8010B21684860E08C0028D0D106
:1035A0004B46002240212046009700F03FFE08B124
:1035B0000320AEE7202084F8390000BF002084F803
:1035C000380000BFA5E70220A3E7704700BFFEE771
:1035D00001464906084A926942F00102064B9A6187
:1035E000064A526822F0E062044B5A601A4652685A
:1035F0000A435A607047000000100240000001407A
:1036000070B5044634B900224FF400410E48FEF76D
:10361000EFFE18E0012C05D10122D1030A48FEF784
:10362000E7FE10E0022C0ED1A1030748FEF7D8FEFA
:1036300008B9012000E0002005462A464FF4004169
:103640000148FEF7D5FE70BD000C014000B585B005
:1036500000BF1048806940F008000E4988610846A4
:10366000806900F00800009000BF00BF4FF40040E8
:1036700001900120029003900320049001A90648C4
:10368000FEF70EFD00224FF400410348FEF7B0FEA6
:1036900005B000BD00100240000C014000BFFEE775
:1036A00070B506460C461546002E07DD1C48066020
:1036B000002281141B48FEF79BFE07E07042184968
:1036C0000860012289141748FEF792FE002C08DDDD
:1036D0001348001D0460002241141248FEF788FEC2
:1036E00008E060420E49091D0860012249140D4896
:1036F000FEF77EFE002D09DD094808300560002236
:103700004FF480410748FEF773FE08E06842044921
:1037100008310860012291030248FEF769FE70BD7E
:10372000342C0140000C014000B585B000BF224898
:10373000806940F40060204988610846806900F48F
:103740000060009000BF00BF00BF0846806940F0E5
:10375000040088610846806900F00400009000BF02
:1037600000BF00BF0846806940F008008861084635
:10377000806900F00800009000BF00BF4FF4E060D7
:103780000190022002900320049001A90B48FEF74B
:1037900087FC4FF4E0400190012002900320049048
:1037A00001A90748FEF77CFC002141F61F4000F00C
:1037B00011FA05B000BD00000010024000080140F1
:1037C000000C0140704770B5002415E004F1B00111
:1037D000C8B200F011F9012000F00EF9102000F03D
:1037E0000BF9002504E0002000F040F9681CC5B288
:1037F000842DF8DB601CC4B2082CE7DB70BD000030
:1038000000B585B000BF4E48806940F010004C49BB
:1038100088610846806900F01000009000BF00BF7A
:1038200000BF0846806940F004008861084680694E
:1038300000F00400009000BF00BF4FF46040019012
:10384000012002900320049001A93E48FEF728FCC5
:103850000120019002900320049001A93A48FEF74C
:103860001FFC0122D1033748FEF7C2FD00224FF4AE
:1038700000513448FEF7BCFD322000F0F9FD012272
:1038800051033048FEF7B4FDAE2000F0B5F800203B
:1038900000F0B2F8102000F0AFF8402000F0ACF8D3
:1038A000812000F0A9F8CF2000F0A6F8A12000F0B8
:1038B000A3F8C82000F0A0F8A62000F09DF8A820EA
:1038C00000F09AF83F2000F097F8D32000F094F829
:1038D000002000F091F8D52000F08EF8802000F054
:1038E0008BF8D92000F088F8F12000F085F8DA2074
:1038F00000F082F8122000F07FF8DB2000F07CF866
:10390000402000F079F8202000F076F8022000F046
:1039100073F88D2000F070F8142000F06DF8A420EA
:1039200000F06AF8A62000F067F8AF2000F064F815
:10393000FFF749FF0021084600F04CF805B000BD34
:103940000010024000100140000801402DE9F0473E
:1039500006460F46904600250024A14631E018F89F
:1039600009002038C5B2782E02DD0026781CC7B2C7
:103970003946304600F02EF8002407E004EB05112C
:10398000134A505C00F072F8601CC4B2082CF5DBDE
:10399000781CC1B2304600F01DF8002408E004EBAA
:1039A000051108310A4A505C00F060F8601CC4B28E
:1039B000082CF4DB06F10800C6B209F1010000F0A2
:1039C000FF0918F809000028C9D1BDE8F0870000F8
:1039D0008353000870B504460D4605F1B001C8B226
:1039E00000F00AF8102141EA141000F005F804F084
:1039F0000F0000F001F870BD70B5044608250022E4
:103A000001211848FEF7F4FC002229031648FEF7AE
:103A1000EFFC012000F0E8FD1EE004F0800028B17A
:103A2000012291031048FEF7E3FC05E000224FF469
:103A300080410D48FEF7DCFC0122D1030A48FEF765
:103A4000D7FC012000F0D0FD00224FF400410648D1
:103A5000FEF7CEFC6006040E281EA5F10101CDB2D2
:103A6000DBD170BD000801400010014070B5044674
:103A70000825012211461848FEF7BAFC0022290346
:103A80001648FEF7B5FC012000F0AEFD1EE004F084
:103A9000800028B1012291031048FEF7A9FC05E03F
:103AA00000224FF480410D48FEF7A2FC0122D10311
:103AB0000A48FEF79DFC012000F096FD00224FF41D
:103AC00000410648FEF794FC6006040E281EA5F18E
:103AD0000101CDB2DBD170BD0008014000100140F2
:103AE0007047000008B508490968C9084FF47A72A0
:103AF000B1FBF2F14143009100BF00BF00994A1EA3
:103B000000920029F9D108BD40000020704710B58F
:103B1000FEF77AFC10BD00B58FB0282105A8FCF790
:103B200064FC14216846FCF760FC01200590000449
:103B30000690002007900120099002200C90C103FC
:103B40000D914FF4E0110E9105A8FEF73DFE08B16E
:103B500000BFFEE70F20009002200190002002909D
:103B60004FF4806003900020049002216846FEF725
:103B7000F5FC08B100BFFEE70FB000BD11480068BA
:103B800040F001000F490860084640680E490840AF
:103B90000C494860084600680C490840094908601B
:103BA0000846006820F4802008600846406820F439
:103BB000FE0048604FF41F008860C8030449086095
:103BC00070470000001002400000FFF8FFFFF6FE03
:103BD00008ED00E070B505460C461D481D4908601B
:103BE0000846446000218160C5600161FFF7B4F9B7
:103BF0001848FFF74BF8602017490860002048601C
:103C0000886000221348FFF723F904221249114863
:103C1000FFF71EF9082210490E48FFF719F9002195
:103C20000C48FFF7B5F904210A48FFF7B1F908215C
:103C30000848FFF7ADF900210648FFF7D5F9042140
:103C40000448FFF7D1F908210248FFF7CDF970BD0C
:103C5000002C0140F8050020380600204FF080407D
:103C600000694FF08040006920F001004FF0804172
:103C70000861704710B50648FFF71EF80548006850
:103C80000448006820F001000249086010BD0000EF
:103C9000B80500201004004004480068034800688C
:103CA00020F0010001490860704700001008004042
:103CB00010B50268204B98420ED0204B98420BD092
:103CC000B0F1804F08D01E4B984205D01D4B984252
:103CD00002D01D4B984203D122F070024B681A4368
:103CE000154B98420ED0154B98420BD0B0F1804F37
:103CF00008D0134B984205D0124B984202D0124B79
:103D0000984203D122F44072CB681A4322F0800318
:103D10004C6943EA040202608B68C3620B688362E9
:103D2000054B984202D0054B984201D10B690363C1
:103D30000123436110BD0000002C0140003401400C
:103D40000004004000080040000C004030B501F0C5
:103D50001F05012404FA05F3046A9C430462046A03
:103D600001F01F0502FA05F52C43046230BD000086
:103D700030B5056A25F001050562026A4368846969
:103D800024F0700424F003040D682C4322F0020296
:103D90008D682A43104DA84200D103E00F4DA84280
:103DA00006D100BF22F00802CD682A4322F00402A7
:103DB000094DA84202D0094DA84207D123F48073CF
:103DC00023F400734D692B438D692B434360846159
:103DD0004D684563026230BD002C01400034014053
:103DE00030B5056A25F010050562026A43688469EA
:103DF00024F4E04424F440740D6844EA052422F0DD
:103E000020028D6842EA0512124DA84200D103E05B
:103E1000114DA84207D100BF22F08002CD6842EACE
:103E2000051222F040020B4DA84202D00A4DA842D2
:103E300009D123F4806323F400634D6943EA8503C9
:103E40008D6943EA8503436084614D68856302623E
:103E500030BD0000002C01400034014030B5056A3F
:103E600025F480750562026A4368C46924F0700411
:103E700024F003040D682C4322F400728D6842EA9A
:103E80000522124DA84200D103E0114DA84207D1EE
:103E900000BF22F40062CD6842EA052222F480626B
:103EA0000A4DA84202D00A4DA84209D123F48053FA
:103EB00023F400534D6943EA05138D6943EA051362
:103EC0004360C4614D68C563026230BD002C01408F
:103ED0000034014030B5056A25F480550562036A57
:103EE0004468C26922F4E04222F440720D6842EA5A
:103EF000052223F400538D6843EA0533084DA84298
:103F000002D0084DA84204D124F480444D6944EA0B
:103F100085144460C2614D680564036230BD0000D1
:103F2000002C01400034014070B505466C6A002049
:103F3000E085E0842046FFF7B6F870BD0168C968E7
:103F400021F490710268D1600168496921F0010192
:103F500002685161202180F83A10704710B504467C
:103F60002068C06820F040002168C860202084F8E4
:103F700039002046FFF729FB002010BD70B504462C
:103F800094F83A0022284AD1A068B0F5805F13D196
:103F9000A56A206940B920684068C0F308002880FD
:103FA000A06A801CA06219E020684068C0B2288026
:103FB000A06A401CA06211E0206938B920684068FE
:103FC000C1B2A26A501CA062117007E0206840686C
:103FD00000F07F01A26A501CA0621170E08D401EAB
:103FE00080B2E085C8B92068C06820F02000216850
:103FF000C8602068C06820F480702168C8602068AC
:10400000406920F0010021684861202084F83A00CE
:104010002046FFF701FA002070BD0020FCE70220D7
:10402000FAE7000070B504462168096921F440519F
:10403000E2681143226811612269A1681143626933
:1040400041EA02052168C96841F20C6291432943A3
:104050002268D1602168496921F44071A269114345
:1040600022685161564A2168914254D1FEF752FBB1
:1040700000EBC00101EB001162689200B1FBF2F1AC
:1040800000EBC00202EB001263689B00B2FBF3F28C
:104090006423B2FBF3F202EBC20303EB0212A1EBC7
:1040A0008201322202EB01116422B1FBF2F101F034
:1040B000F00100EBC00202EB001263689B00B2FB50
:1040C000F3F26423B2FBF3F201EB021200EBC00146
:1040D00001EB001163689B00B1FBF3F100EBC0033F
:1040E00003EB00136668B600B3FBF6F36426B3FB7C
:1040F000F6F303EBC30606EB0313A1EB83013223B4
:1041000003EB01116423B1FBF3F101F00F01114442
:104110002268916053E0FEF7EDFA00EBC00101EB7D
:10412000001162689200B1FBF2F100EBC00202EBF9
:10413000001263689B00B2FBF3F26423B2FBF3F25C
:1041400002EBC20303EB0212A1EB8201322202EB6B
:1041500001116422B1FBF2F101F0F00100EBC002A9
:1041600002EB001263689B00B2FBF3F26423B2FB24
:10417000F3F201EB021200EBC00101EB00116368E6
:104180009B00B1FBF3F100EBC00303EB0013666887
:10419000B600B3FBF6F36426B3FBF6F303EBC306FA
:1041A00006EB0313A1EB8301322303EB011164231C
:1041B000B1FBF3F101F00F0111442268916070BD71
:1041C00000380140014691F8390021282CD1886837
:1041D000B0F5805F0FD10A6A1088C0F308000B6841
:1041E0005860086918B9086A801C086209E0086A02
:1041F000401C086205E00B6A581C086218780B68BE
:104200005860C88C401E80B2C88458B90868C0681D
:1042100020F080000B68D8600868C06840F040005B
:104220000B68D860002070470220FCE72DE9F041C0
:1042300004460D4617469846069E21E0701CF8B1CC
:104240002EB1FEF7DBF8A0EB0800B04218D92068C9
:10425000C06820F4D0702168C8602068406920F0F0
:10426000010021684861202084F8390084F83A0070
:1042700000BF002084F8380000BF0320BDE8F081B3
:10428000206800682840A84201D1012000E00020F9
:10429000B842D3D00020F1E710B50248FEF704FF82
:1042A00010BD00003801002010B50248FEF7FCFEEA
:1042B00010BD00007801002000BFFEE7490050EA71
:1042C000C12018BF04204A0D18BF40F0010040F281
:1042D000FF72B2EB515F08BF40F00200012808BF37
:1042E0000520704702480068C0F3022070470000B4
:1042F0000CED00E010B5002804DB0A07130E054A98
:10430000135406E00A07140E034A00F00F031B1FA4
:10431000D45410BD00E400E018ED00E040F201329A
:1043200000204FF0E04100F037BD0000024A0020BD
:10433000110700F031BD000001FDFFFF10B504467C
:10434000D1E9000100F002F8206010BDF8B5044684
:104350000D466A4600F0CAF800987E3000900028AA
:104360001EDC002213462046294600F0DDFB17D054
:10437000002140F608004FF000000646204629467E
:1043800000F08CFB044640F6080006EA00014FF0FE
:10439000000034F0004004BF0220FCF756F829E08A
:1043A0000098FF2828DB002108464FF0000000F4A9
:1043B0004006002213462046294600F07BFC8CBFB5
:1043C000002501250220FCF740F84FF0FF4446B1DC
:1043D000002D0CBF4FF400004FF48000B04218BF16
:1043E000084C042108464FF00000002D04BF84F063
:1043F0000040F8BD2046F8BD20462946BDE8F840FB
:1044000000F04CBBFFFF7F7F10B504460A46D4E99D
:104410000003194600F096F8C4E9000110BD3038D9
:104420000A2801D2012070470020704700BF704762
:1044300030B583B00446FCF703F805460020CDE90B
:104440000000024621466846FCF762FA2846FBF760
:10445000FCFFDDE9000103B030BD000010B50446EB
:104460000420FEF7E3FB0148046010BD2C0000208F
:1044700030B50446002504E04FF47A7000F004F8EB
:104480006D1CA542F8D330BD70B5034600224FF035
:10449000E02675690D4E366803FB06F44FF0E02602
:1044A000B16910E04FF0E026B06988420BD0884235
:1044B00002D20E1A324402E02E1A0E443244014651
:1044C000A24200D300E0EDE700BF70BD2C00002049
:1044D00000BF054A126802F04002002AF9D0C2B2B9
:1044E000014B1B1D1A6070470044004010B5144674
:1044F00000222260114A21F000439342A8BF10BD60
:1045000053EA000208BF10BDB3F5801FA8BF2268A0
:1045100007DA362200F040FC6FF0350221F000434C
:104520002260DFF81CC06FF31E510CEB23531A44BA
:1045300041F0FF5141F00051226010BD0000F07FBA
:1045400002FCFFFF2DE9F04106460C4640F2FF75E4
:10455000174635EA14502BD000221346304600F09F
:10456000E3FA25D03A463046214600F015FC0646CF
:104570000C4635EA145010D000221346304600F0A5
:10458000D3FA15D10220FBF760FFFFF7CFFE0A46F2
:10459000214662F31E01BDE8F0810220FBF755FFC2
:1045A000FFF7BCFE0A46214662F31E01BDE8F0811A
:1045B00030462146BDE8F0812DE9F04104460D4624
:1045C00016461F46B4F5E15F08DA054C054D4FF479
:1045D000C876324629462046FFF762F8BDE8F081EA
:1045E000A8FDFFFF88FAFFFF00E000BF011EA0F159
:1045F0000100FAD170470000FDF712FFFFF78BFAB8
:104600004820FFF72BFF0120FEF7E2FF4FF4E131D6
:10461000032000F0DBF94FF4E131022000F0D6F97D
:10462000FFF7EEF8FFF712F8FFF77EF84FF4FA7095
:10463000FFF71EFF90A0FBF7FDFD93A0FBF7FAFD2F
:1046400019E199A19D4800F099F99DA200210A2045
:10465000FFF77CF901209D4908609D490860D9E079
:104660009C4800780028FAD09B48D0E900109B4A6B
:10467000C2E900109A49914800F080F99848FFF784
:10468000D7FE954A03C2944896A10CC89648FBF7FA
:10469000DDFD954A04210020FFF758F90220FEF7BE
:1046A000AFFF8F48FFF7C4FE8B4A03C200228F4B37
:1046B000894903C900F074FA7ED24FF033328C4B33
:1046C000854903C900F0F6FA0FD88A4A8A4B824915
:1046D00003C900F065FA08D8834B88480268884807
:1046E00001688848006800F01BF9824A864B7A49C5
:1046F00003C900F055FA10D24FF03332834B76499C
:1047000003C900F0D7FA08D8774B7C4802687C4888
:1047100001687C480068FFF74FFF002213466E498E
:1047200003C900F0C7FA10D84FF03332704B6A4912
:1047300003C900F035FA08D86B4B7048026870481E
:1047400001687048006800F003F9002213466249CE
:1047500003C900F025FA0FD2664A6B4B5E4903C9C4
:1047600000F0A8FA08D8604B644802686448016801
:104770006448006800F0ECF80022654B564903C914
:1047800000F0D2F911D163485E4908605C490860C5
:104790005A4908600846008802B25948008801B2A8
:1047A0005848008800B2FEF77BFF00225A4B4A4966
:1047B00003C900F0B9F900E013E002D10020434939
:1047C00008600022554B444903C900F0ADF91AD1E5
:1047D000002211461046FEF763FF00203C490860A6
:1047E00011E04C4847490860454908604349086062
:1047F0000846008802B24248008801B24148008859
:1048000000B2FEF74DFF3148006800B907E0002014
:10481000304908702D48006801283FF421AF00BFDF
:104820002B48006801281DD10022114640F2A460E7
:10483000FEF736FF40F66600FFF71AFE4FF47A7275
:1048400011461046FEF72CFF4FF45770FFF710FE8D
:10485000002211461046FEF723FF4FF4C870FFF701
:1048600007FE08E0002211461046FEF719FF42F24B
:104870001070FFF7FDFDE4E64C6F6E67205169751F
:10488000204B65204A690A00555341525433207425
:104890006573742C546869732069732055534152B1
:1048A00054322E0A00000000546869732069732096
:1048B000555341525433210A000000007801002072
:1048C00055415254205465737400000020000020AC
:1048D000240000203D0000200000002018000020DF
:1048E000B8010020256600005000002000408F40E5
:1048F0003333C33F9A9999999999E93F1000002061
:104900000C000020080000209999C9BF3333F3BF81
:104910000000594018FCFFFF00407F400000894024
:104920002DE9F04104460D4616461F46B4F5E15FF9
:1049300009DA4FF41674054D40F2145632462946F2
:104940002046FEF7ADFEBDE8F08100000CFEFFFF43
:104950002DE9F04104460D4616461F46B4F5E15FC9
:1049600008DA0024044D4FF41666324629462046E4
:10497000FEF796FEBDE8F0816EF6FFFF70B50446C7
:104980000D460E492068884209D12846FBF70EFDE6
:1049900086B26423324629460948FEF7ABFD094931
:1049A0002068884209D12846FBF700FD86B26423BF
:1049B000324629460448FEF79DFD70BD0044004084
:1049C00038010020004800407801002070B50546FD
:1049D0000C46022D02D0032D28D113E014481549AE
:1049E00008600846446000218160C1600161816106
:1049F0000C214161FEF7FEFB01220F490D48FEF735
:104A0000D3FC00BF0D480E490860084644600021F1
:104A10008160C160016181610C214161FEF7EAFBA7
:104A2000012205490648FEF7BFFC00BF00BF70BD6C
:104A300000440040380100203600002000480040BB
:104A40007801002010B500290AD00878002807D086
:104A500005487844FCF774FB002801D0002010BD05
:104A60000248784410BD00004E13000046130000B9
:104A700010B500290AD00878002807D005487844E6
:104A8000FCF75EFB002801D0002010BD02487844EE
:104A900010BD00003E1300003613000021F000425C
:104AA000A2F16052B2F5801F01F0004328BFD2F19D
:104AB0007F6C0BD95FEA001C43EAC20242EB5070E4
:104AC00018BF704728BF20F001007047B2F5801F63
:104AD000BCBF184670474FEA410C1CF5001F02D2BC
:104AE000084600F01DB970B500F096F80000008986
:104AF000FFF7F6BF4FF00040A0F5800070470000C0
:104B000002494FF0000000F015B900BF0000F87F27
:104B1000491058BFC1F140415B1058BFC3F1404339
:104B20008B42EFF30080704751EA030C17D41CF559
:104B3000801F58BFBCF5801F00F10680994218BF46
:104B4000704708BF9042704707D711F5801F58BFC4
:104B500013F5801F19D499427047894270471CF59C
:104B6000801F08D5BCF5801FF7D58B4218BF704752
:104B700008BF824270474FF4001C1CEB410F38BF46
:104B80001CEB430F01D28B42704770B500F044F824
:104B9000922449004FF000514FF08053FFF7B8BF07
:104BA00051EA030C17D41CF5801F58BFBCF5801FB9
:104BB00000F10680994218BF704708BF90427047C5
:104BC00007D711F5801F58BF13F5801F19D49942DC
:104BD0007047894270471CF5801F08D5BCF5801FBF
:104BE000F7D58B4218BF704708BF824270474FF419
:104BF000001C1CEB410F38BF1CEB430F01D28B4252
:104C0000704770B500F008F8922449004FF0005149
:104C10004FF08053FFF77CBF0EF1020E2EF0030E13
:104C20005EF8046B364205D4012A43EB030515F503
:104C3000001F12D8012841EB010C1CF5001F0CD8F5
:104C40000ED14FEAD17C15F5001F0CEB4C0C0CF18A
:104C5000020C08BF4CEBD37C04E04FF0080C01E0E1
:104C60004FEAD37C0CEB4C0526FA05F606F0070656
:104C7000B6F1040C06D20EEB860CBDE870404CF089
:104C8000010C6047DFE80CF0090B02024FF0004115
:104C90004FF00000A1F5002170BD19461046012813
:104CA00051EB010418BFD4F5001484BF002001F0BB
:104CB000004170BD53EA010C17D41CF5801F58BF8A
:104CC000BCF5801F00F106808B4218BF704708BFFB
:104CD0008242704707D713F5801F58BF11F5801F18
:104CE00019D48B4270479B4270471CF5801F08D532
:104CF000BCF5801FF7D5994218BF704708BF904296
:104D000070474FF4001C1CEB430F38BF1CEB410FE6
:104D100001D2994270470FB40CBC03BCFFF771BFBE
:104D2000FF2141EAD050C00570474FF000007047A6
:104D3000FBF76ABC0CF00F03092B08BF082000F03A
:104D40005F800A2B0BD0082B18BF704708BF1CF0E0
:104D5000400F0AD04FF000004FF0000170471CF0E8
:104D6000400F18BF4FF0004070471CF0100F08D0E4
:104D700020F0704300F07F4242EAD3014FEA4370D3
:104D8000704700F0604021F07F4242EA000201F0EB
:104D90007F4040EA727070474FF0FF0C4CF4E06CBB
:104DA0001CEA11531CBF9CEA030C9445C2BFDA42B3
:104DB00001EB02517047002B0DD0BCF1000F0FD05A
:104DC000002A01F00041A4BF41F0E04141F07F61C1
:104DD0004FF00000704701F000414FF000007047B5
:104DE00050EA01334FF09B0C18BF4CF0806C7FF4FD
:104DF00087AE7047FCF744B8FCF7E2B9FCF770BB2C
:104E00001CF4801F11D01CF4E02F03D06FEACC31CA
:104E1000490070474FF04050EFF3008222F070429B
:104E200042EA000282F3008870474FF000007047AA
:104E30000000000000000000002F0000000007003C
:104E4000070000147F147F1400242A7F2A120062B6
:104E50006408132300364955225000000503000062
:104E600000001C224100000041221C000014083EEA
:104E700008140008083E0808000000A060000008B0
:104E80000808080800006060000000201008040204
:104E9000003E5149453E0000427F400000426151C2
:104EA0004946002141454B31001814127F1000275C
:104EB00045454539003C4A4949300001710905031F
:104EC00000364949493600064949291E0000363650
:104ED00000000000563600000008142241000014B3
:104EE0001414141400004122140800020151090690
:104EF00000324959513E007C1211127C007F494911
:104F00004936003E41414122007F4141221C007F41
:104F100049494941007F09090901003E4149497A4F
:104F2000007F0808087F0000417F410000204041C9
:104F30003F01007F08142241007F40404040007F35
:104F4000020C027F007F0408107F003E4141413E79
:104F5000007F09090906003E4151215E007F0919C1
:104F600029460046494949310001017F0101003FBE
:104F70004040403F001F2040201F003F4038403F3E
:104F800000631408146300070870080700615149A2
:104F9000454300007F41410000552A552A55000035
:104FA00041417F00000402010204004040404040B3
:104FB000000001020400002054545478007F48444B
:104FC000443800384444442000384444487F003882
:104FD0005454541800087E0901020018A4A4A47CAB
:104FE000007F080404780000447D40000040808475
:104FF0007D00007F102844000000417F4000007CBD
:1050000004180478007C08040478003844444438C8
:1050100000FC242424180018242418FC007C080414
:10502000040800485454542000043F444020003CED
:105030004040207C001C2040201C003C4030403C74
:10504000004428102844001CA0A0A07C0044645404
:105050004C44141414141414B1B1BEA9B5E7D7D339
:10506000BFC6BCBCD6B0D2B5D1A7D4BAC1FAC7F1BD
:10507000D6C7C4DCBBFAC6F7C8CBD2A3BFD8C6F725
:10508000BDD3CAD5B7A2CBCDB0B4BCFCA3BA002067
:10509000202020FE000000FE80402010001010089C
:1050A000047F0000003F40404070000808E82828C6
:1050B0002A2C282828E80808000020130A42427EEB
:1050C00002020A1320000000F090909090FE909051
:1050D0009090F00000000F040404043F4444444452
:1050E000477000808282828282C2A2928A868280F7
:1050F000000000000040407F000000000000004071
:105100004848F8444420C41800FE00000008040386
:105110007F0204020202027F0101001010FE100053
:10512000909090FE909010000042427F01404023FA
:105130001408142340400004FC2424FC0400FC0454
:105140000404FC0000101F11097F08403302020212
:1051500013600010608000FE000000FE0080700000
:1051600000404043407F4040407F4241404000700B
:1051700010929490929490989412107000040404E9
:105180000444447E06050404040400FC04649C00FA
:105190001848484A4C484818007F0808074022121F
:1051A0000E02023E42620020202020A07E20E02449
:1051B0002820A020004020100C2320103F44424112
:1051C00040700000FC444444C24200FC0444B40C5F
:1051D00000101F1010080F08007F0010100F00288B
:1051E000A6643C64A420FC848484FC000001007E4E
:1051F0002A2A2A2A2A2A2A7E0000001098949290AD
:105200009830003E4848447400007F0A0A4A7F00F4
:10521000003F44444271001090FE901000FC0404D2
:1052200004FC00000002017F0041300F0000003F3D
:10523000407000809E9292929EC09E92B2D29E80BA
:1052400000047C4A4A49780078494A4A7C040000B4
:1052500000000000807E8000000000000040402030
:10526000100C0300030C10204040004042CC00848E
:105270006C544CD444524E020040201F20425A52DB
:10528000525F52525A42001010FE100098482A0CE9
:10529000082848980042427F01004042427E424234
:1052A000424000809E9292929EC09E92B2D29E8078
:1052B00000047C4A4A49780078494A4A7C04001034
:1052C00010FE10504858EA4C685848400042427F4F
:1052D00001424A2E13122A2642020000F80000FE64
:1052E000004020DE1010F01000000702017F004097
:1052F0002017081621400000302C20A0702E2020FE
:105300002024282000100844424127291129254340
:105310004040008084980080929490F09094928015
:105320000040201F20405048464142445840001051
:1053300010FE1000B88888EA8C8888B80042427F46
:1053400001004044271808142340002050CE480094
:10535000C8B820A8FEA8F8200002023F5228102F4B
:10536000204A7F4A4A480000000080800000000078
:1053700000000000000000001919000000000000FB
:10538000000000000000000000000000000000001D
:10539000000000000000F8000000000000003330B2
:1053A00000000000100C06100C06000000000000B9
:1053B00000000040C07840C0784000043F04043F33
:1053C000040400007088FC08300000001820FF2151
:1053D0001E0000F008F000E018000000211C031E71
:1053E000211E0000F00888700000001E21232419EF
:1053F00027211010160E0000000000000000000021
:10540000000000000000E01804020000000007187F
:1054100020400000020418E00000000040201807AF
:10542000000000404080F0804040000202010F0177
:10543000020200000000F0000000000101011F0155
:10544000010100000000000000000080B0700000BA
:105450000000000000000000000000000101010148
:1054600001010100000000000000000030300000D9
:1054700000000000000000806018040060180601B1
:1054800000000000E010080810E000000F102020CD
:10549000100F00001010F8000000000020203F2036
:1054A00020000000700808088870000030282422BE
:1054B0002130000030088888483000001820202063
:1054C000110E000000C02010F80000000704242482
:1054D0003F240000F80888880808000019212020CF
:1054E000110E0000E0108888180000000F11202025
:1054F000110E0000380808C83808000000003F00FE
:105500000000000070880808887000001C2221211B
:10551000221C0000E010080810E0000000312222E8
:10552000110F00000000C0C000000000000030307B
:10553000000000000000800000000000008060000B
:105540000000000000804020100800000102040854
:105550001020004040404040404000040404040447
:1055600004040000081020408000000020100804FF
:10557000020100007048080808F000000000303602
:10558000010000C030C828E810E0000718272423D5
:10559000140B000000C038E0000000203C23020291
:1055A00027382008F8888888700000203F202020B5
:1055B000110E00C030080808083800071820202005
:1055C00010080008F808080810E000203F202020FC
:1055D000100F0008F88888E8081000203F202023DA
:1055E00020180008F88888E8081000203F200003F1
:1055F000000000C0300808083800000718202022EA
:105600001E020008F808000008F808203F210101E8
:10561000213F20000808F8080800000020203F2053
:1056200020000000000808F8080800C08080807F83
:1056300000000008F888C028180800203F20012634
:1056400038200008F8080000000000203F2020203B
:1056500020300008F8F800F8F80800203F003F006C
:105660003F200008F830C00008F808203F2000075D
:10567000183F00E01008080810E0000F102020205C
:10568000100F0008F808080808F000203F21010169
:10569000010000E01008080810E0000F182424386A
:1056A000504F0008F8888888887000203F20000349
:1056B0000C302000708808080838000038202121AC
:1056C000221C00180808F8080818000000203F20D5
:1056D00000000008F808000008F808001F2020203B
:1056E000201F000878880000C83808000007380E1E
:1056F000010000F80800F80008F800033C07000764
:105700003C0300081868808068180820302C0303C8
:105710002C30200838C800C83808000000203F207E
:1057200000000010080808C838080020382621208A
:10573000201800000000FE020202000000007F406E
:10574000404000000C30C0000000000000000106D6
:1057500038C00000020202FE000000004040407F0E
:10576000000000000004020202040000000000002B
:1057700000000000000000000000008080808080A9
:105780008080800002020400000000000000000091
:105790000000000000808080800000001924222288
:1057A000223F2008F8008080000000003F112020E8
:1057B000110E000000008080800000000E112020EB
:1057C000201100000000808088F800000E112020C9
:1057D000103F200000808080800000001F222222D5
:1057E000221300008080F0888888180020203F2045
:1057F0002000000000808080808000006B949494E2
:1058000093600008F8008080800000203F210000A5
:10581000203F2000809898000000000020203F20BA
:10582000200000000000809898000000C080808068
:105830007F000008F8000080808000203F24022DB7
:10584000302000000808F8000000000020203F2061
:105850002000008080808080808000203F20003FEA
:1058600020003F8080008080800000203F210000D9
:10587000203F200000808080800000001F2020202A
:10588000201F00808000808000000080FFA1202079
:10589000110E000000008080808000000E1120208A
:1058A000A0FF80808080008080800020203F212019
:1058B00000010000008080808080000033242424C8
:1058C000241900008080E0808000000000001F207C
:1058D0002000008080000000808000001F20202029
:1058E000103F20808080000080808000010E300802
:1058F00006010080800080008080800F300C030C47
:10590000300F0000808000808080000020312E0E4B
:10591000312000808080000080808080818E70181F
:1059200006010000808080808080000021302C22D1
:1059300021300000000000807C0202000000000016
:105940003F404000000000FF00000000000000FF9A
:105950000000000002027C800000000040403F0088
:105960000000000006010102020404000000000023
:105970000000000000000000000000000000000027
:105980000000000000000000000000000000000017
:10599000000000000000000000000000003F3F3F4A
:1059A0003F3FC0C0C0C0C0000000000000000000B9
:1059B00000000000000000000000000000000000E7
:1059C00000000000000000000000000000000000D7
:1059D0000000000000000000000000000080C0E0A7
:1059E000E0F0F0F0F00000000000F0F0F0F0F0F077
:1059F000F0F0F0F0F0F0F0F0F0F0F0F0F0F0F0F0A7
:105A0000F0F0F0F0F0F0F0F0F0F007070707070013
:105A1000000000000000000000E0F0F0F0000000D6
:105A2000000060E0E0C0000000000000C0E0E0E036
:105A3000606060607070303000E0E0E0E02060E0C6
:105A4000E0E040F0FEFFFFFFFFFFFFFFFF00000070
:105A50000000FFFFFFFFFFFFFFFFFF1F1F1F1F1FB4
:105A60001F1F1F1F1F1F1F1F1F1F1F1F1F1FFFFF86
:105A7000FFFFFEFEFEFEFE0000000606060606C64E
:105A8000FEFFFF1F070606FEFEFE06060686C6662A
:105A900006000000FFFFFFFF3030F0F0F0F0303084
:105AA00000FFFFFFFF4078FFFFFF80FFFFFFFFFFCA
:105AB000FFFFFFFFFF0000000000FFFFFFFFFFFFF1
:105AC000FFFFFF00000000000000000000000000D9
:105AD000000000000000FFFFFFFFFFFFFFFFFF00CF
